{
  "abi": [
    {
      "inputs": [],
      "stateMutability": "nonpayable",
      "type": "constructor"
    },
    {
      "inputs": [],
      "name": "AccessControlBadConfirmation",
      "type": "error"
    },
    {
      "inputs": [
        {
          "internalType": "address",
          "name": "account",
          "type": "address"
        },
        {
          "internalType": "bytes32",
          "name": "neededRole",
          "type": "bytes32"
        }
      ],
      "name": "AccessControlUnauthorizedAccount",
      "type": "error"
    },
    {
      "anonymous": false,
      "inputs": [
        {
          "indexed": true,
          "internalType": "address",
          "name": "citizen",
          "type": "address"
        },
        {
          "indexed": false,
          "internalType": "uint256",
          "name": "reputation",
          "type": "uint256"
        }
      ],
      "name": "CitizenRegistered",
      "type": "event"
    },
    {
      "anonymous": false,
      "inputs": [
        {
          "indexed": true,
          "internalType": "address",
          "name": "merchant",
          "type": "address"
        },
        {
          "indexed": false,
          "internalType": "uint256",
          "name": "rewardAmount",
          "type": "uint256"
        },
        {
          "indexed": false,
          "internalType": "uint256",
          "name": "currentReputation",
          "type": "uint256"
        }
      ],
      "name": "NewMerchantRewarded",
      "type": "event"
    },
    {
      "anonymous": false,
      "inputs": [
        {
          "indexed": true,
          "internalType": "address",
          "name": "previousOwner",
          "type": "address"
        },
        {
          "indexed": true,
          "internalType": "address",
          "name": "newOwner",
          "type": "address"
        }
      ],
      "name": "OwnershipTransferred",
      "type": "event"
    },
    {
      "anonymous": false,
      "inputs": [
        {
          "indexed": true,
          "internalType": "address",
          "name": "referrer",
          "type": "address"
        },
        {
          "indexed": false,
          "internalType": "uint256",
          "name": "rewardAmount",
          "type": "uint256"
        },
        {
          "indexed": false,
          "internalType": "uint256",
          "name": "currentReputation",
          "type": "uint256"
        }
      ],
      "name": "ReferralRewarded",
      "type": "event"
    },
    {
      "anonymous": false,
      "inputs": [
        {
          "indexed": true,
          "internalType": "address",
          "name": "citizen",
          "type": "address"
        },
        {
          "indexed": false,
          "internalType": "uint256",
          "name": "rewardAmount",
          "type": "uint256"
        },
        {
          "indexed": false,
          "internalType": "uint256",
          "name": "currentReputation",
          "type": "uint256"
        }
      ],
      "name": "ReviewRewarded",
      "type": "event"
    },
    {
      "anonymous": false,
      "inputs": [
        {
          "indexed": true,
          "internalType": "bytes32",
          "name": "role",
          "type": "bytes32"
        },
        {
          "indexed": true,
          "internalType": "bytes32",
          "name": "previousAdminRole",
          "type": "bytes32"
        },
        {
          "indexed": true,
          "internalType": "bytes32",
          "name": "newAdminRole",
          "type": "bytes32"
        }
      ],
      "name": "RoleAdminChanged",
      "type": "event"
    },
    {
      "anonymous": false,
      "inputs": [
        {
          "indexed": true,
          "internalType": "bytes32",
          "name": "role",
          "type": "bytes32"
        },
        {
          "indexed": true,
          "internalType": "address",
          "name": "account",
          "type": "address"
        },
        {
          "indexed": true,
          "internalType": "address",
          "name": "sender",
          "type": "address"
        }
      ],
      "name": "RoleGranted",
      "type": "event"
    },
    {
      "anonymous": false,
      "inputs": [
        {
          "indexed": true,
          "internalType": "bytes32",
          "name": "role",
          "type": "bytes32"
        },
        {
          "indexed": true,
          "internalType": "address",
          "name": "account",
          "type": "address"
        },
        {
          "indexed": true,
          "internalType": "address",
          "name": "sender",
          "type": "address"
        }
      ],
      "name": "RoleRevoked",
      "type": "event"
    },
    {
      "anonymous": false,
      "inputs": [
        {
          "indexed": true,
          "internalType": "address",
          "name": "citizen",
          "type": "address"
        },
        {
          "indexed": false,
          "internalType": "uint256",
          "name": "rewardAmount",
          "type": "uint256"
        },
        {
          "indexed": false,
          "internalType": "uint256",
          "name": "currentReputation",
          "type": "uint256"
        }
      ],
      "name": "TransactionRewarded",
      "type": "event"
    },
    {
      "inputs": [],
      "name": "CRYPTOMAPP_CONTRACT_ROLE",
      "outputs": [
        {
          "internalType": "bytes32",
          "name": "",
          "type": "bytes32"
        }
      ],
      "stateMutability": "view",
      "type": "function"
    },
    {
      "inputs": [],
      "name": "DEFAULT_ADMIN_ROLE",
      "outputs": [
        {
          "internalType": "bytes32",
          "name": "",
          "type": "bytes32"
        }
      ],
      "stateMutability": "view",
      "type": "function"
    },
    {
      "inputs": [],
      "name": "MERCHANT_REGISTRATION_REWARD",
      "outputs": [
        {
          "internalType": "uint256",
          "name": "",
          "type": "uint256"
        }
      ],
      "stateMutability": "view",
      "type": "function"
    },
    {
      "inputs": [],
      "name": "OWNER_ROLE",
      "outputs": [
        {
          "internalType": "bytes32",
          "name": "",
          "type": "bytes32"
        }
      ],
      "stateMutability": "view",
      "type": "function"
    },
    {
      "inputs": [],
      "name": "REFERRER_CITIZEN_REWARD",
      "outputs": [
        {
          "internalType": "uint256",
          "name": "",
          "type": "uint256"
        }
      ],
      "stateMutability": "view",
      "type": "function"
    },
    {
      "inputs": [],
      "name": "REFERRER_MERCHANT_REWARD",
      "outputs": [
        {
          "internalType": "uint256",
          "name": "",
          "type": "uint256"
        }
      ],
      "stateMutability": "view",
      "type": "function"
    },
    {
      "inputs": [],
      "name": "REGISTERER_ROLE",
      "outputs": [
        {
          "internalType": "bytes32",
          "name": "",
          "type": "bytes32"
        }
      ],
      "stateMutability": "view",
      "type": "function"
    },
    {
      "inputs": [],
      "name": "REVIEW_REWARD",
      "outputs": [
        {
          "internalType": "uint256",
          "name": "",
          "type": "uint256"
        }
      ],
      "stateMutability": "view",
      "type": "function"
    },
    {
      "inputs": [],
      "name": "TRANSACTION_REWARD",
      "outputs": [
        {
          "internalType": "uint256",
          "name": "",
          "type": "uint256"
        }
      ],
      "stateMutability": "view",
      "type": "function"
    },
    {
      "inputs": [
        {
          "internalType": "address",
          "name": "_citizen",
          "type": "address"
        },
        {
          "internalType": "uint256",
          "name": "_amount",
          "type": "uint256"
        }
      ],
      "name": "addEXP",
      "outputs": [],
      "stateMutability": "nonpayable",
      "type": "function"
    },
    {
      "inputs": [
        {
          "internalType": "address",
          "name": "_citizen",
          "type": "address"
        }
      ],
      "name": "getEXP",
      "outputs": [
        {
          "internalType": "uint256",
          "name": "",
          "type": "uint256"
        }
      ],
      "stateMutability": "view",
      "type": "function"
    },
    {
      "inputs": [
        {
          "internalType": "bytes32",
          "name": "role",
          "type": "bytes32"
        }
      ],
      "name": "getRoleAdmin",
      "outputs": [
        {
          "internalType": "bytes32",
          "name": "",
          "type": "bytes32"
        }
      ],
      "stateMutability": "view",
      "type": "function"
    },
    {
      "inputs": [
        {
          "internalType": "address",
          "name": "account",
          "type": "address"
        }
      ],
      "name": "grantCryptoMappContractRole",
      "outputs": [],
      "stateMutability": "nonpayable",
      "type": "function"
    },
    {
      "inputs": [
        {
          "internalType": "address",
          "name": "account",
          "type": "address"
        }
      ],
      "name": "grantOwner",
      "outputs": [],
      "stateMutability": "nonpayable",
      "type": "function"
    },
    {
      "inputs": [
        {
          "internalType": "address",
          "name": "account",
          "type": "address"
        }
      ],
      "name": "grantRegisterRole",
      "outputs": [],
      "stateMutability": "nonpayable",
      "type": "function"
    },
    {
      "inputs": [
        {
          "internalType": "bytes32",
          "name": "role",
          "type": "bytes32"
        },
        {
          "internalType": "address",
          "name": "account",
          "type": "address"
        }
      ],
      "name": "grantRole",
      "outputs": [],
      "stateMutability": "nonpayable",
      "type": "function"
    },
    {
      "inputs": [
        {
          "internalType": "bytes32",
          "name": "role",
          "type": "bytes32"
        },
        {
          "internalType": "address",
          "name": "account",
          "type": "address"
        }
      ],
      "name": "hasRole",
      "outputs": [
        {
          "internalType": "bool",
          "name": "",
          "type": "bool"
        }
      ],
      "stateMutability": "view",
      "type": "function"
    },
    {
      "inputs": [
        {
          "internalType": "address",
          "name": "_citizen",
          "type": "address"
        }
      ],
      "name": "isRegistered",
      "outputs": [
        {
          "internalType": "bool",
          "name": "",
          "type": "bool"
        }
      ],
      "stateMutability": "view",
      "type": "function"
    },
    {
      "inputs": [
        {
          "internalType": "address",
          "name": "_citizen",
          "type": "address"
        },
        {
          "internalType": "address",
          "name": "_referrer",
          "type": "address"
        }
      ],
      "name": "registerCitizen",
      "outputs": [],
      "stateMutability": "nonpayable",
      "type": "function"
    },
    {
      "inputs": [
        {
          "internalType": "bytes32",
          "name": "role",
          "type": "bytes32"
        },
        {
          "internalType": "address",
          "name": "callerConfirmation",
          "type": "address"
        }
      ],
      "name": "renounceRole",
      "outputs": [],
      "stateMutability": "nonpayable",
      "type": "function"
    },
    {
      "inputs": [
        {
          "internalType": "address",
          "name": "",
          "type": "address"
        }
      ],
      "name": "reputation",
      "outputs": [
        {
          "internalType": "uint256",
          "name": "",
          "type": "uint256"
        }
      ],
      "stateMutability": "view",
      "type": "function"
    },
    {
      "inputs": [
        {
          "internalType": "address",
          "name": "account",
          "type": "address"
        }
      ],
      "name": "revokeCryptoMappContractRole",
      "outputs": [],
      "stateMutability": "nonpayable",
      "type": "function"
    },
    {
      "inputs": [
        {
          "internalType": "address",
          "name": "account",
          "type": "address"
        }
      ],
      "name": "revokeOwner",
      "outputs": [],
      "stateMutability": "nonpayable",
      "type": "function"
    },
    {
      "inputs": [
        {
          "internalType": "address",
          "name": "account",
          "type": "address"
        }
      ],
      "name": "revokeRegisterRole",
      "outputs": [],
      "stateMutability": "nonpayable",
      "type": "function"
    },
    {
      "inputs": [
        {
          "internalType": "bytes32",
          "name": "role",
          "type": "bytes32"
        },
        {
          "internalType": "address",
          "name": "account",
          "type": "address"
        }
      ],
      "name": "revokeRole",
      "outputs": [],
      "stateMutability": "nonpayable",
      "type": "function"
    },
    {
      "inputs": [
        {
          "internalType": "address",
          "name": "_merchant",
          "type": "address"
        }
      ],
      "name": "rewardForBecomingMerchant",
      "outputs": [],
      "stateMutability": "nonpayable",
      "type": "function"
    },
    {
      "inputs": [
        {
          "internalType": "address",
          "name": "_referrer",
          "type": "address"
        }
      ],
      "name": "rewardForMerchantReferral",
      "outputs": [],
      "stateMutability": "nonpayable",
      "type": "function"
    },
    {
      "inputs": [
        {
          "internalType": "address",
          "name": "_citizen",
          "type": "address"
        }
      ],
      "name": "rewardForReview",
      "outputs": [],
      "stateMutability": "nonpayable",
      "type": "function"
    },
    {
      "inputs": [
        {
          "internalType": "address",
          "name": "_citizen",
          "type": "address"
        }
      ],
      "name": "rewardForTransaction",
      "outputs": [],
      "stateMutability": "nonpayable",
      "type": "function"
    },
    {
      "inputs": [
        {
          "internalType": "bytes4",
          "name": "interfaceId",
          "type": "bytes4"
        }
      ],
      "name": "supportsInterface",
      "outputs": [
        {
          "internalType": "bool",
          "name": "",
          "type": "bool"
        }
      ],
      "stateMutability": "view",
      "type": "function"
    }
  ],
  "bytecode": {
    "object": "0x608060405234801561001057600080fd5b5061001c600033610022565b506100ce565b6000828152602081815260408083206001600160a01b038516845290915281205460ff166100c4576000838152602081815260408083206001600160a01b03861684529091529020805460ff1916600117905561007c3390565b6001600160a01b0316826001600160a01b0316847f2f8788117e7eff1d82e926ec794901d17c78024a50270940304540a733656f0d60405160405180910390a45060016100c8565b5060005b92915050565b610f07806100dd6000396000f3fe608060405234801561001057600080fd5b50600436106101da5760003560e01c806393834bf811610104578063c6f743f1116100a2578063e347454e11610071578063e347454e14610408578063e58378bb1461041d578063e948712314610432578063fa95bbbf1461044557600080fd5b8063c6f743f1146103bc578063cd43ea92146103cf578063d547741f146103e2578063dc978059146103f557600080fd5b8063b418d53b116100de578063b418d53b1461034b578063b9f794511461035e578063ba76f0fc1461037e578063c3c5a5471461039157600080fd5b806393834bf814610305578063a217fddf1461032e578063b06a89f01461033657600080fd5b806336568abe1161017c5780636ba863161161014b5780636ba86316146102c45780636d151101146102d75780638fe52601146102ea57806391d14854146102f257600080fd5b806336568abe146102835780634c7af49d1461029657806361842db8146102a957806368908884146102b157600080fd5b806318860a98116101b857806318860a9814610232578063248a9ca3146102455780632f2ff15d1461026857806334159dbd1461027b57600080fd5b806301ffc9a7146101df5780630dd27535146102075780630ed824101461021c575b600080fd5b6101f26101ed366004610d1f565b61044d565b60405190151581526020015b60405180910390f35b61021a610215366004610d6c565b610484565b005b610224603281565b6040519081526020016101fe565b61021a610240366004610d6c565b61055f565b610224610253366004610d87565b60009081526020819052604090206001015490565b61021a610276366004610da0565b610593565b61022460fa81565b61021a610291366004610da0565b6105be565b61021a6102a4366004610d6c565b6105f6565b610224609681565b61021a6102bf366004610d6c565b6106f0565b61021a6102d2366004610d6c565b610720565b61021a6102e5366004610d6c565b6107ea565b610224600a81565b6101f2610300366004610da0565b61080d565b610224610313366004610d6c565b6001600160a01b031660009081526001602052604090205490565b610224600081565b610224600080516020610e7283398151915281565b61021a610359366004610dcc565b610836565b61022461036c366004610d6c565b60016020526000908152604090205481565b61021a61038c366004610d6c565b6108b5565b6101f261039f366004610d6c565b6001600160a01b0316600090815260016020526040902054151590565b61021a6103ca366004610d6c565b6108e5565b61021a6103dd366004610d6c565b6109df565b61021a6103f0366004610da0565b610a0b565b61021a610403366004610d6c565b610a30565b610224600080516020610eb283398151915281565b610224600080516020610e9283398151915281565b61021a610440366004610df6565b610a53565b610224601481565b60006001600160e01b03198216637965db0b60e01b148061047e57506301ffc9a760e01b6001600160e01b03198316145b92915050565b600080516020610e7283398151915261049c81610bdc565b6001600160a01b0382166000908152600160205260409020546104da5760405162461bcd60e51b81526004016104d190610e20565b60405180910390fd5b6001600160a01b0382166000908152600160205260408120805460149290610503908490610e50565b90915550506001600160a01b03821660008181526001602090815260409182902054825160148152918201527f61f0f10b46ff5a91b422f31935275e5562e2db30aaa4bb5cfdc436e1e2f7d2a991015b60405180910390a25050565b600080516020610e9283398151915261057781610bdc565b61058f600080516020610e7283398151915283610593565b5050565b6000828152602081905260409020600101546105ae81610bdc565b6105b88383610be9565b50505050565b6001600160a01b03811633146105e75760405163334bd91960e11b815260040160405180910390fd5b6105f18282610c7b565b505050565b600080516020610e7283398151915261060e81610bdc565b6001600160a01b0382166000908152600160205260409020546106735760405162461bcd60e51b815260206004820152601760248201527f5265666572726572206e6f74207265676973746572656400000000000000000060448201526064016104d1565b6001600160a01b038216600090815260016020526040812080546096929061069c908490610e50565b90915550506001600160a01b03821660008181526001602090815260409182902054825160968152918201527fb0ff8fecc36351fe07e00d6df11e1c13ccfd7a2a87389960531546952235a5899101610553565b600080516020610e9283398151915261070881610bdc565b6105f1600080516020610eb283398151915283610c7b565b600080516020610e7283398151915261073881610bdc565b6001600160a01b03821660009081526001602052604090205461076d5760405162461bcd60e51b81526004016104d190610e20565b6001600160a01b03821660009081526001602052604081208054600a9290610796908490610e50565b90915550506001600160a01b038216600081815260016020908152604091829020548251600a8152918201527fd34b64483c47fd53f708002b944df08669f684f3a214cad27fbfb2750ec3a39b9101610553565b60006107f581610bdc565b6105f1600080516020610e9283398151915283610c7b565b6000918252602082815260408084206001600160a01b0393909316845291905290205460ff1690565b600080516020610e9283398151915261084e81610bdc565b6001600160a01b0383166000908152600160205260409020546108835760405162461bcd60e51b81526004016104d190610e20565b6001600160a01b038316600090815260016020526040812080548492906108ab908490610e50565b9091555050505050565b600080516020610e928339815191526108cd81610bdc565b6105f1600080516020610eb283398151915283610be9565b600080516020610e728339815191526108fd81610bdc565b6001600160a01b0382166000908152600160205260409020546109625760405162461bcd60e51b815260206004820152601760248201527f4d65726368616e74206e6f74207265676973746572656400000000000000000060448201526064016104d1565b6001600160a01b0382166000908152600160205260408120805460fa929061098b908490610e50565b90915550506001600160a01b03821660008181526001602090815260409182902054825160fa8152918201527ffd00547a5563655f2c302455a3087d7c04c00c2f25de80fbf98984ca745a43189101610553565b600080516020610e928339815191526109f781610bdc565b61058f600080516020610e72833981519152835b600082815260208190526040902060010154610a2681610bdc565b6105b88383610c7b565b6000610a3b81610bdc565b6105f1600080516020610e9283398151915283610be9565b600080516020610eb2833981519152610a6b81610bdc565b6001600160a01b03831660009081526001602052604090205415610ad15760405162461bcd60e51b815260206004820152601a60248201527f436974697a656e20616c7265616479207265676973746572656400000000000060448201526064016104d1565b6001600160a01b03831660008181526001602090815260409182902060649081905591519182527f9f4e1c382cdd9fb482444097babab40742f8a3624c0ab69305c3c396f26794b8910160405180910390a26001600160a01b03821615801590610b5257506001600160a01b03821660009081526001602052604090205415155b156105f1576001600160a01b0382166000908152600160205260408120805460329290610b80908490610e50565b90915550506001600160a01b03821660008181526001602090815260409182902054825160328152918201527fb0ff8fecc36351fe07e00d6df11e1c13ccfd7a2a87389960531546952235a589910160405180910390a2505050565b610be68133610ce6565b50565b6000610bf5838361080d565b610c73576000838152602081815260408083206001600160a01b03861684529091529020805460ff19166001179055610c2b3390565b6001600160a01b0316826001600160a01b0316847f2f8788117e7eff1d82e926ec794901d17c78024a50270940304540a733656f0d60405160405180910390a450600161047e565b50600061047e565b6000610c87838361080d565b15610c73576000838152602081815260408083206001600160a01b0386168085529252808320805460ff1916905551339286917ff6391f5c32d9c69d2a47ea670b442974b53935d1edc7fd64eb21e047a839171b9190a450600161047e565b610cf0828261080d565b61058f5760405163e2517d3f60e01b81526001600160a01b0382166004820152602481018390526044016104d1565b600060208284031215610d3157600080fd5b81356001600160e01b031981168114610d4957600080fd5b9392505050565b80356001600160a01b0381168114610d6757600080fd5b919050565b600060208284031215610d7e57600080fd5b610d4982610d50565b600060208284031215610d9957600080fd5b5035919050565b60008060408385031215610db357600080fd5b82359150610dc360208401610d50565b90509250929050565b60008060408385031215610ddf57600080fd5b610de883610d50565b946020939093013593505050565b60008060408385031215610e0957600080fd5b610e1283610d50565b9150610dc360208401610d50565b60208082526016908201527510da5d1a5e995b881b9bdd081c9959da5cdd195c995960521b604082015260600190565b8082018082111561047e57634e487b7160e01b600052601160045260246000fdfee11746540629ed8dbdaa396fba20979f201347c96c55bbf04a96cb22e0d6d8b8b19546dff01e856fb3f010c267a7b1c60363cf8a4664e21cc89c26224620214ed1f21ec03a6eb050fba156f5316dad461735df521fb446dd42c5a4728e9c70fea26469706673582212201174222012e5ac4ebc8cd1ace51e034d91fa7b630b3034e054ed8567659fb79664736f6c63430008150033",
    "linkReferences": {}
  },
  "methodIdentifiers": {
    "CRYPTOMAPP_CONTRACT_ROLE()": "b06a89f0",
    "DEFAULT_ADMIN_ROLE()": "a217fddf",
    "MERCHANT_REGISTRATION_REWARD()": "34159dbd",
    "OWNER_ROLE()": "e58378bb",
    "REFERRER_CITIZEN_REWARD()": "0ed82410",
    "REFERRER_MERCHANT_REWARD()": "61842db8",
    "REGISTERER_ROLE()": "e347454e",
    "REVIEW_REWARD()": "fa95bbbf",
    "TRANSACTION_REWARD()": "8fe52601",
    "addEXP(address,uint256)": "b418d53b",
    "getEXP(address)": "93834bf8",
    "getRoleAdmin(bytes32)": "248a9ca3",
    "grantCryptoMappContractRole(address)": "18860a98",
    "grantOwner(address)": "dc978059",
    "grantRegisterRole(address)": "ba76f0fc",
    "grantRole(bytes32,address)": "2f2ff15d",
    "hasRole(bytes32,address)": "91d14854",
    "isRegistered(address)": "c3c5a547",
    "registerCitizen(address,address)": "e9487123",
    "renounceRole(bytes32,address)": "36568abe",
    "reputation(address)": "b9f79451",
    "revokeCryptoMappContractRole(address)": "cd43ea92",
    "revokeOwner(address)": "6d151101",
    "revokeRegisterRole(address)": "68908884",
    "revokeRole(bytes32,address)": "d547741f",
    "rewardForBecomingMerchant(address)": "c6f743f1",
    "rewardForMerchantReferral(address)": "4c7af49d",
    "rewardForReview(address)": "0dd27535",
    "rewardForTransaction(address)": "6ba86316",
    "supportsInterface(bytes4)": "01ffc9a7"
  },
  "id": 51
}