{
  "abi": [
    {
      "inputs": [
        {
          "internalType": "address",
          "name": "_usdc",
          "type": "address"
        },
        {
          "internalType": "address",
          "name": "_reputationRegistry",
          "type": "address"
        },
        {
          "internalType": "address",
          "name": "_daoAddress",
          "type": "address"
        },
        {
          "internalType": "address",
          "name": "trustedForwarder",
          "type": "address"
        }
      ],
      "stateMutability": "nonpayable",
      "type": "constructor"
    },
    {
      "inputs": [
        {
          "internalType": "address",
          "name": "target",
          "type": "address"
        }
      ],
      "name": "AddressEmptyCode",
      "type": "error"
    },
    {
      "inputs": [
        {
          "internalType": "address",
          "name": "account",
          "type": "address"
        }
      ],
      "name": "AddressInsufficientBalance",
      "type": "error"
    },
    {
      "inputs": [],
      "name": "ERC721EnumerableForbiddenBatchMint",
      "type": "error"
    },
    {
      "inputs": [
        {
          "internalType": "address",
          "name": "sender",
          "type": "address"
        },
        {
          "internalType": "uint256",
          "name": "tokenId",
          "type": "uint256"
        },
        {
          "internalType": "address",
          "name": "owner",
          "type": "address"
        }
      ],
      "name": "ERC721IncorrectOwner",
      "type": "error"
    },
    {
      "inputs": [
        {
          "internalType": "address",
          "name": "operator",
          "type": "address"
        },
        {
          "internalType": "uint256",
          "name": "tokenId",
          "type": "uint256"
        }
      ],
      "name": "ERC721InsufficientApproval",
      "type": "error"
    },
    {
      "inputs": [
        {
          "internalType": "address",
          "name": "approver",
          "type": "address"
        }
      ],
      "name": "ERC721InvalidApprover",
      "type": "error"
    },
    {
      "inputs": [
        {
          "internalType": "address",
          "name": "operator",
          "type": "address"
        }
      ],
      "name": "ERC721InvalidOperator",
      "type": "error"
    },
    {
      "inputs": [
        {
          "internalType": "address",
          "name": "owner",
          "type": "address"
        }
      ],
      "name": "ERC721InvalidOwner",
      "type": "error"
    },
    {
      "inputs": [
        {
          "internalType": "address",
          "name": "receiver",
          "type": "address"
        }
      ],
      "name": "ERC721InvalidReceiver",
      "type": "error"
    },
    {
      "inputs": [
        {
          "internalType": "address",
          "name": "sender",
          "type": "address"
        }
      ],
      "name": "ERC721InvalidSender",
      "type": "error"
    },
    {
      "inputs": [
        {
          "internalType": "uint256",
          "name": "tokenId",
          "type": "uint256"
        }
      ],
      "name": "ERC721NonexistentToken",
      "type": "error"
    },
    {
      "inputs": [
        {
          "internalType": "address",
          "name": "owner",
          "type": "address"
        },
        {
          "internalType": "uint256",
          "name": "index",
          "type": "uint256"
        }
      ],
      "name": "ERC721OutOfBoundsIndex",
      "type": "error"
    },
    {
      "inputs": [],
      "name": "FailedInnerCall",
      "type": "error"
    },
    {
      "inputs": [
        {
          "internalType": "address",
          "name": "owner",
          "type": "address"
        }
      ],
      "name": "OwnableInvalidOwner",
      "type": "error"
    },
    {
      "inputs": [
        {
          "internalType": "address",
          "name": "account",
          "type": "address"
        }
      ],
      "name": "OwnableUnauthorizedAccount",
      "type": "error"
    },
    {
      "inputs": [
        {
          "internalType": "address",
          "name": "token",
          "type": "address"
        }
      ],
      "name": "SafeERC20FailedOperation",
      "type": "error"
    },
    {
      "anonymous": false,
      "inputs": [
        {
          "indexed": true,
          "internalType": "address",
          "name": "owner",
          "type": "address"
        },
        {
          "indexed": true,
          "internalType": "address",
          "name": "approved",
          "type": "address"
        },
        {
          "indexed": true,
          "internalType": "uint256",
          "name": "tokenId",
          "type": "uint256"
        }
      ],
      "name": "Approval",
      "type": "event"
    },
    {
      "anonymous": false,
      "inputs": [
        {
          "indexed": true,
          "internalType": "address",
          "name": "owner",
          "type": "address"
        },
        {
          "indexed": true,
          "internalType": "address",
          "name": "operator",
          "type": "address"
        },
        {
          "indexed": false,
          "internalType": "bool",
          "name": "approved",
          "type": "bool"
        }
      ],
      "name": "ApprovalForAll",
      "type": "event"
    },
    {
      "anonymous": false,
      "inputs": [
        {
          "indexed": true,
          "internalType": "uint256",
          "name": "tokenId",
          "type": "uint256"
        },
        {
          "indexed": false,
          "internalType": "string",
          "name": "newArweaveId",
          "type": "string"
        }
      ],
      "name": "ArweaveIdUpdated",
      "type": "event"
    },
    {
      "anonymous": false,
      "inputs": [
        {
          "indexed": true,
          "internalType": "address",
          "name": "merchantAddress",
          "type": "address"
        },
        {
          "indexed": false,
          "internalType": "uint256",
          "name": "merchantId",
          "type": "uint256"
        },
        {
          "indexed": false,
          "internalType": "string",
          "name": "arweaveId",
          "type": "string"
        }
      ],
      "name": "NewMerchantRegistered",
      "type": "event"
    },
    {
      "anonymous": false,
      "inputs": [
        {
          "indexed": true,
          "internalType": "address",
          "name": "previousOwner",
          "type": "address"
        },
        {
          "indexed": true,
          "internalType": "address",
          "name": "newOwner",
          "type": "address"
        }
      ],
      "name": "OwnershipTransferred",
      "type": "event"
    },
    {
      "anonymous": false,
      "inputs": [
        {
          "indexed": true,
          "internalType": "address",
          "name": "from",
          "type": "address"
        },
        {
          "indexed": true,
          "internalType": "address",
          "name": "to",
          "type": "address"
        },
        {
          "indexed": true,
          "internalType": "uint256",
          "name": "tokenId",
          "type": "uint256"
        }
      ],
      "name": "Transfer",
      "type": "event"
    },
    {
      "inputs": [],
      "name": "UPDATE_FEE",
      "outputs": [
        {
          "internalType": "uint256",
          "name": "",
          "type": "uint256"
        }
      ],
      "stateMutability": "view",
      "type": "function"
    },
    {
      "inputs": [
        {
          "internalType": "address",
          "name": "to",
          "type": "address"
        },
        {
          "internalType": "uint256",
          "name": "tokenId",
          "type": "uint256"
        }
      ],
      "name": "approve",
      "outputs": [],
      "stateMutability": "nonpayable",
      "type": "function"
    },
    {
      "inputs": [
        {
          "internalType": "uint256",
          "name": "",
          "type": "uint256"
        }
      ],
      "name": "arweaveId",
      "outputs": [
        {
          "internalType": "string",
          "name": "",
          "type": "string"
        }
      ],
      "stateMutability": "view",
      "type": "function"
    },
    {
      "inputs": [
        {
          "internalType": "address",
          "name": "owner",
          "type": "address"
        }
      ],
      "name": "balanceOf",
      "outputs": [
        {
          "internalType": "uint256",
          "name": "",
          "type": "uint256"
        }
      ],
      "stateMutability": "view",
      "type": "function"
    },
    {
      "inputs": [
        {
          "internalType": "uint256",
          "name": "tokenId",
          "type": "uint256"
        }
      ],
      "name": "getApproved",
      "outputs": [
        {
          "internalType": "address",
          "name": "",
          "type": "address"
        }
      ],
      "stateMutability": "view",
      "type": "function"
    },
    {
      "inputs": [
        {
          "internalType": "address",
          "name": "owner",
          "type": "address"
        },
        {
          "internalType": "address",
          "name": "operator",
          "type": "address"
        }
      ],
      "name": "isApprovedForAll",
      "outputs": [
        {
          "internalType": "bool",
          "name": "",
          "type": "bool"
        }
      ],
      "stateMutability": "view",
      "type": "function"
    },
    {
      "inputs": [
        {
          "internalType": "address",
          "name": "forwarder",
          "type": "address"
        }
      ],
      "name": "isTrustedForwarder",
      "outputs": [
        {
          "internalType": "bool",
          "name": "",
          "type": "bool"
        }
      ],
      "stateMutability": "view",
      "type": "function"
    },
    {
      "inputs": [],
      "name": "name",
      "outputs": [
        {
          "internalType": "string",
          "name": "",
          "type": "string"
        }
      ],
      "stateMutability": "view",
      "type": "function"
    },
    {
      "inputs": [],
      "name": "owner",
      "outputs": [
        {
          "internalType": "address",
          "name": "",
          "type": "address"
        }
      ],
      "stateMutability": "view",
      "type": "function"
    },
    {
      "inputs": [
        {
          "internalType": "uint256",
          "name": "tokenId",
          "type": "uint256"
        }
      ],
      "name": "ownerOf",
      "outputs": [
        {
          "internalType": "address",
          "name": "",
          "type": "address"
        }
      ],
      "stateMutability": "view",
      "type": "function"
    },
    {
      "inputs": [
        {
          "internalType": "address",
          "name": "merchant",
          "type": "address"
        },
        {
          "internalType": "string",
          "name": "_arweaveId",
          "type": "string"
        }
      ],
      "name": "registerMerchant",
      "outputs": [],
      "stateMutability": "nonpayable",
      "type": "function"
    },
    {
      "inputs": [
        {
          "internalType": "address",
          "name": "merchant",
          "type": "address"
        },
        {
          "internalType": "address",
          "name": "referrer",
          "type": "address"
        },
        {
          "internalType": "string",
          "name": "_arweaveId",
          "type": "string"
        }
      ],
      "name": "registerMerchantWithReferrer",
      "outputs": [],
      "stateMutability": "nonpayable",
      "type": "function"
    },
    {
      "inputs": [],
      "name": "renounceOwnership",
      "outputs": [],
      "stateMutability": "nonpayable",
      "type": "function"
    },
    {
      "inputs": [],
      "name": "reputationRegistry",
      "outputs": [
        {
          "internalType": "contract ReputationRegistry",
          "name": "",
          "type": "address"
        }
      ],
      "stateMutability": "view",
      "type": "function"
    },
    {
      "inputs": [
        {
          "internalType": "address",
          "name": "from",
          "type": "address"
        },
        {
          "internalType": "address",
          "name": "to",
          "type": "address"
        },
        {
          "internalType": "uint256",
          "name": "tokenId",
          "type": "uint256"
        }
      ],
      "name": "safeTransferFrom",
      "outputs": [],
      "stateMutability": "nonpayable",
      "type": "function"
    },
    {
      "inputs": [
        {
          "internalType": "address",
          "name": "from",
          "type": "address"
        },
        {
          "internalType": "address",
          "name": "to",
          "type": "address"
        },
        {
          "internalType": "uint256",
          "name": "tokenId",
          "type": "uint256"
        },
        {
          "internalType": "bytes",
          "name": "data",
          "type": "bytes"
        }
      ],
      "name": "safeTransferFrom",
      "outputs": [],
      "stateMutability": "nonpayable",
      "type": "function"
    },
    {
      "inputs": [
        {
          "internalType": "address",
          "name": "operator",
          "type": "address"
        },
        {
          "internalType": "bool",
          "name": "approved",
          "type": "bool"
        }
      ],
      "name": "setApprovalForAll",
      "outputs": [],
      "stateMutability": "nonpayable",
      "type": "function"
    },
    {
      "inputs": [
        {
          "internalType": "bytes4",
          "name": "interfaceId",
          "type": "bytes4"
        }
      ],
      "name": "supportsInterface",
      "outputs": [
        {
          "internalType": "bool",
          "name": "",
          "type": "bool"
        }
      ],
      "stateMutability": "view",
      "type": "function"
    },
    {
      "inputs": [],
      "name": "symbol",
      "outputs": [
        {
          "internalType": "string",
          "name": "",
          "type": "string"
        }
      ],
      "stateMutability": "view",
      "type": "function"
    },
    {
      "inputs": [
        {
          "internalType": "uint256",
          "name": "index",
          "type": "uint256"
        }
      ],
      "name": "tokenByIndex",
      "outputs": [
        {
          "internalType": "uint256",
          "name": "",
          "type": "uint256"
        }
      ],
      "stateMutability": "view",
      "type": "function"
    },
    {
      "inputs": [
        {
          "internalType": "address",
          "name": "owner",
          "type": "address"
        },
        {
          "internalType": "uint256",
          "name": "index",
          "type": "uint256"
        }
      ],
      "name": "tokenOfOwnerByIndex",
      "outputs": [
        {
          "internalType": "uint256",
          "name": "",
          "type": "uint256"
        }
      ],
      "stateMutability": "view",
      "type": "function"
    },
    {
      "inputs": [
        {
          "internalType": "uint256",
          "name": "tokenId",
          "type": "uint256"
        }
      ],
      "name": "tokenURI",
      "outputs": [
        {
          "internalType": "string",
          "name": "",
          "type": "string"
        }
      ],
      "stateMutability": "view",
      "type": "function"
    },
    {
      "inputs": [],
      "name": "totalSupply",
      "outputs": [
        {
          "internalType": "uint256",
          "name": "",
          "type": "uint256"
        }
      ],
      "stateMutability": "view",
      "type": "function"
    },
    {
      "inputs": [
        {
          "internalType": "address",
          "name": "from",
          "type": "address"
        },
        {
          "internalType": "address",
          "name": "to",
          "type": "address"
        },
        {
          "internalType": "uint256",
          "name": "tokenId",
          "type": "uint256"
        }
      ],
      "name": "transferFrom",
      "outputs": [],
      "stateMutability": "nonpayable",
      "type": "function"
    },
    {
      "inputs": [
        {
          "internalType": "address",
          "name": "newOwner",
          "type": "address"
        }
      ],
      "name": "transferOwnership",
      "outputs": [],
      "stateMutability": "nonpayable",
      "type": "function"
    },
    {
      "inputs": [],
      "name": "trustedForwarder",
      "outputs": [
        {
          "internalType": "address",
          "name": "",
          "type": "address"
        }
      ],
      "stateMutability": "view",
      "type": "function"
    },
    {
      "inputs": [
        {
          "internalType": "uint256",
          "name": "tokenId",
          "type": "uint256"
        },
        {
          "internalType": "string",
          "name": "_arweaveId",
          "type": "string"
        }
      ],
      "name": "updateMerchantCall",
      "outputs": [],
      "stateMutability": "nonpayable",
      "type": "function"
    },
    {
      "inputs": [],
      "name": "usdc",
      "outputs": [
        {
          "internalType": "contract IERC20",
          "name": "",
          "type": "address"
        }
      ],
      "stateMutability": "view",
      "type": "function"
    }
  ],
  "bytecode": {
    "object": "0x60a06040523480156200001157600080fd5b506040516200242938038062002429833981016040819052620000349162000180565b81816040518060400160405280600a81526020016913595c98da185b9d125160b21b8152506040518060400160405280600381526020016213525160ea1b815250816000908162000086919062000282565b50600162000095828262000282565b5050506001600160a01b039081166080528116620000cd57604051631e4fbdf760e01b81526000600482015260240160405180910390fd5b620000d88162000111565b5050600b80546001600160a01b039485166001600160a01b031991821617909155600c805493909416921691909117909155506200034e565b600a80546001600160a01b038381166001600160a01b0319831681179093556040519116919082907f8be0079c531659141344cd1fd0a4f28419497f9722a3daafe3b4186f6b6457e090600090a35050565b80516001600160a01b03811681146200017b57600080fd5b919050565b600080600080608085870312156200019757600080fd5b620001a28562000163565b9350620001b26020860162000163565b9250620001c26040860162000163565b9150620001d26060860162000163565b905092959194509250565b634e487b7160e01b600052604160045260246000fd5b600181811c908216806200020857607f821691505b6020821081036200022957634e487b7160e01b600052602260045260246000fd5b50919050565b601f8211156200027d57600081815260208120601f850160051c81016020861015620002585750805b601f850160051c820191505b81811015620002795782815560010162000264565b5050505b505050565b81516001600160401b038111156200029e576200029e620001dd565b620002b681620002af8454620001f3565b846200022f565b602080601f831160018114620002ee5760008415620002d55750858301515b600019600386901b1c1916600185901b17855562000279565b600085815260208120601f198616915b828110156200031f57888601518255948401946001909101908401620002fe565b50858210156200033e5787850151600019600388901b60f8161c191681555b5050505050600190811b01905550565b6080516120b162000378600039600081816102da0152818161033a015261132201526120b16000f3fe608060405234801561001057600080fd5b50600436106101c45760003560e01c8063715018a6116100f9578063a6c8a38411610097578063c87b56dd11610071578063c87b56dd146103e0578063c8db44e3146103f3578063e985e9c514610406578063f2fde38b1461041957600080fd5b8063a6c8a384146103b0578063b88d4fde146103c3578063bf0e120b146103d657600080fd5b8063911ed550116100d3578063911ed5501461036f57806395d89b41146103825780639e6c58ba1461038a578063a22cb4651461039d57600080fd5b8063715018a6146103305780637da0a877146103385780638da5cb5b1461035e57600080fd5b80632f745c59116101665780634f6ccce7116101405780634f6ccce7146102b7578063572b6c05146102ca5780636352211e1461030a57806370a082311461031d57600080fd5b80632f745c591461027e5780633e413bee1461029157806342842e0e146102a457600080fd5b8063095ea7b3116101a2578063095ea7b31461023157806318160ddd146102465780631d19d0e41461025857806323b872dd1461026b57600080fd5b806301ffc9a7146101c957806306fdde03146101f1578063081812fc14610206575b600080fd5b6101dc6101d7366004611a47565b61042c565b60405190151581526020015b60405180910390f35b6101f9610457565b6040516101e89190611ab4565b610219610214366004611ac7565b6104e9565b6040516001600160a01b0390911681526020016101e8565b61024461023f366004611afc565b610512565b005b6008545b6040519081526020016101e8565b610244610266366004611bd2565b610528565b610244610279366004611c30565b6108c4565b61024a61028c366004611afc565b610956565b600b54610219906001600160a01b031681565b6102446102b2366004611c30565b6109bb565b61024a6102c5366004611ac7565b6109db565b6101dc6102d8366004611c6c565b7f00000000000000000000000000000000000000000000000000000000000000006001600160a01b0390811691161490565b610219610318366004611ac7565b610a34565b61024a61032b366004611c6c565b610a3f565b610244610a87565b7f0000000000000000000000000000000000000000000000000000000000000000610219565b600a546001600160a01b0316610219565b6101f961037d366004611ac7565b610a9b565b6101f9610b35565b610244610398366004611c87565b610b44565b6102446103ab366004611cdc565b610c2b565b6102446103be366004611d13565b610c3d565b6102446103d1366004611d4b565b610cc8565b61024a6298968081565b6101f96103ee366004611ac7565b610cdf565b600c54610219906001600160a01b031681565b6101dc610414366004611dc7565b610d54565b610244610427366004611c6c565b610d82565b60006001600160e01b0319821663780e9d6360e01b1480610451575061045182610dc0565b92915050565b60606000805461046690611dfa565b80601f016020809104026020016040519081016040528092919081815260200182805461049290611dfa565b80156104df5780601f106104b4576101008083540402835291602001916104df565b820191906000526020600020905b8154815290600101906020018083116104c257829003601f168201915b5050505050905090565b60006104f482610e10565b506000828152600460205260409020546001600160a01b0316610451565b610524828261051f610e49565b610e58565b5050565b610530610e65565b600c5460405163c3c5a54760e01b81526001600160a01b0384811660048301529091169063c3c5a54790602401602060405180830381865afa15801561057a573d6000803e3d6000fd5b505050506040513d601f19601f8201168201806040525081019061059e9190611e34565b6105ef5760405162461bcd60e51b815260206004820152601760248201527f5265666572726572206e6f74207265676973746572656400000000000000000060448201526064015b60405180910390fd5b6105f883610ec3565b156106455760405162461bcd60e51b815260206004820152601b60248201527f4d65726368616e7420616c72656164792072656769737465726564000000000060448201526064016105e6565b600c5460405163c3c5a54760e01b81526001600160a01b0385811660048301529091169063c3c5a54790602401602060405180830381865afa15801561068f573d6000803e3d6000fd5b505050506040513d601f19601f820116820180604052508101906106b39190611e34565b1561071b5760405162461bcd60e51b815260206004820152603260248201527f4d65726368616e742073686f756c64206e6f74206265207265676973746572656044820152711908185cc8184818da5d1a5e995b881e595d60721b60648201526084016105e6565b600061072660085490565b610731906001611e67565b905061073d8482610ed6565b6000818152600d602052604090206107558382611ec8565b50600c5460405163e948712360e01b81526001600160a01b03868116600483015285811660248301529091169063e948712390604401600060405180830381600087803b1580156107a557600080fd5b505af11580156107b9573d6000803e3d6000fd5b5050600c5460405163c6f743f160e01b81526001600160a01b038881166004830152909116925063c6f743f19150602401600060405180830381600087803b15801561080457600080fd5b505af1158015610818573d6000803e3d6000fd5b5050600c54604051634c7af49d60e01b81526001600160a01b0387811660048301529091169250634c7af49d9150602401600060405180830381600087803b15801561086357600080fd5b505af1158015610877573d6000803e3d6000fd5b50505050836001600160a01b03167f16770655f5e10e075410826e0cbd3067ba5e87639a49407124ec270af265766e82846040516108b6929190611f88565b60405180910390a250505050565b6001600160a01b0382166108ee57604051633250574960e11b8152600060048201526024016105e6565b600061090283836108fd610e49565b610f3b565b9050836001600160a01b0316816001600160a01b031614610950576040516364283d7b60e01b81526001600160a01b03808616600483015260248201849052821660448201526064016105e6565b50505050565b600061096183610a3f565b82106109925760405163295f44f760e21b81526001600160a01b0384166004820152602481018390526044016105e6565b506001600160a01b03919091166000908152600660209081526040808320938352929052205490565b6109d683838360405180602001604052806000815250610cc8565b505050565b60006109e660085490565b8210610a0f5760405163295f44f760e21b815260006004820152602481018390526044016105e6565b60088281548110610a2257610a22611fa1565b90600052602060002001549050919050565b600061045182610e10565b60006001600160a01b038216610a6b576040516322718ad960e21b8152600060048201526024016105e6565b506001600160a01b031660009081526003602052604090205490565b610a8f610e65565b610a996000611010565b565b600d6020526000908152604090208054610ab490611dfa565b80601f0160208091040260200160405190810160405280929190818152602001828054610ae090611dfa565b8015610b2d5780601f10610b0257610100808354040283529160200191610b2d565b820191906000526020600020905b815481529060010190602001808311610b1057829003601f168201915b505050505081565b60606001805461046690611dfa565b610b4c610e49565b6001600160a01b0316610b5e83610a34565b6001600160a01b031614610bb45760405162461bcd60e51b815260206004820152601b60248201527f4e6f7420746865206f776e6572206f66204d65726368616e744944000000000060448201526064016105e6565b610bd6610bbf610e49565b600b546001600160a01b0316903062989680611062565b6000828152600d60205260409020610bee8282611ec8565b50817f2e1ddea49b4746cf23531a4712360c13bb9d1e1dcdba33336f52cfda7d485c9582604051610c1f9190611ab4565b60405180910390a25050565b610524610c36610e49565b83836110bc565b610c45610e65565b6000610c5060085490565b610c5b906001611e67565b9050610c678382610ed6565b6000818152600d60205260409020610c7f8382611ec8565b50826001600160a01b03167f16770655f5e10e075410826e0cbd3067ba5e87639a49407124ec270af265766e8284604051610cbb929190611f88565b60405180910390a2505050565b610cd38484846108c4565b6109508484848461115b565b6060610cea82610e10565b506000610d0260408051602081019091526000815290565b90506000815111610d225760405180602001604052806000815250610d4d565b80610d2c8461128b565b604051602001610d3d929190611fb7565b6040516020818303038152906040525b9392505050565b6001600160a01b03918216600090815260056020908152604080832093909416825291909152205460ff1690565b610d8a610e65565b6001600160a01b038116610db457604051631e4fbdf760e01b8152600060048201526024016105e6565b610dbd81611010565b50565b60006001600160e01b031982166380ac58cd60e01b1480610df157506001600160e01b03198216635b5e139f60e01b145b8061045157506301ffc9a760e01b6001600160e01b0319831614610451565b6000818152600260205260408120546001600160a01b03168061045157604051637e27328960e01b8152600481018490526024016105e6565b6000610e5361131e565b905090565b6109d68383836001611370565b610e6d610e49565b6001600160a01b0316610e88600a546001600160a01b031690565b6001600160a01b031614610a9957610e9e610e49565b60405163118cdaa760e01b81526001600160a01b0390911660048201526024016105e6565b600080610ecf83610a3f565b1192915050565b6001600160a01b038216610f0057604051633250574960e11b8152600060048201526024016105e6565b6000610f0e83836000610f3b565b90506001600160a01b038116156109d6576040516339e3563760e11b8152600060048201526024016105e6565b600080610f49858585611476565b90506001600160a01b038116610fa657610fa184600880546000838152600960205260408120829055600182018355919091527ff3f7a9fe364faab93b216da50a3214154f22a0a2b415b23a84c8169e8b636ee30155565b610fc9565b846001600160a01b0316816001600160a01b031614610fc957610fc9818561156f565b6001600160a01b038516610fe557610fe084611600565b611008565b846001600160a01b0316816001600160a01b0316146110085761100885856116af565b949350505050565b600a80546001600160a01b038381166001600160a01b0319831681179093556040519116919082907f8be0079c531659141344cd1fd0a4f28419497f9722a3daafe3b4186f6b6457e090600090a35050565b604080516001600160a01b0385811660248301528416604482015260648082018490528251808303909101815260849091019091526020810180516001600160e01b03166323b872dd60e01b1790526109509085906116ff565b6001600160a01b0382166110ee57604051630b61174360e31b81526001600160a01b03831660048201526024016105e6565b6001600160a01b03838116600081815260056020908152604080832094871680845294825291829020805460ff191686151590811790915591519182527f17307eab39ab6107e8899845ad3d59bd9653f200f220920489ca2b5937696c31910160405180910390a3505050565b6001600160a01b0383163b1561095057826001600160a01b031663150b7a02611182610e49565b8685856040518563ffffffff1660e01b81526004016111a49493929190611fe6565b6020604051808303816000875af19250505080156111df575060408051601f3d908101601f191682019092526111dc91810190612019565b60015b611248573d80801561120d576040519150601f19603f3d011682016040523d82523d6000602084013e611212565b606091505b50805160000361124057604051633250574960e11b81526001600160a01b03851660048201526024016105e6565b805181602001fd5b6001600160e01b03198116630a85bd0160e11b1461128457604051633250574960e11b81526001600160a01b03851660048201526024016105e6565b5050505050565b6060600061129883611762565b600101905060008167ffffffffffffffff8111156112b8576112b8611b26565b6040519080825280601f01601f1916602001820160405280156112e2576020820181803683370190505b5090508181016020015b600019016f181899199a1a9b1b9c1cb0b131b232b360811b600a86061a8153600a85049450846112ec57509392505050565b60007f00000000000000000000000000000000000000000000000000000000000000006001600160a01b031633148015611359575060143610155b1561136b575060131936013560601c90565b503390565b808061138457506001600160a01b03821615155b1561144657600061139484610e10565b90506001600160a01b038316158015906113c05750826001600160a01b0316816001600160a01b031614155b80156113d357506113d18184610d54565b155b156113fc5760405163a9fbf51f60e01b81526001600160a01b03841660048201526024016105e6565b81156114445783856001600160a01b0316826001600160a01b03167f8c5be1e5ebec7d5bd14f71427d1e84f3dd0314c0f7b2291e5b200ac8c7c3b92560405160405180910390a45b505b5050600090815260046020526040902080546001600160a01b0319166001600160a01b0392909216919091179055565b6000828152600260205260408120546001600160a01b03908116908316156114a3576114a381848661183a565b6001600160a01b038116156114e1576114c0600085600080611370565b6001600160a01b038116600090815260036020526040902080546000190190555b6001600160a01b03851615611510576001600160a01b0385166000908152600360205260409020805460010190555b60008481526002602052604080822080546001600160a01b0319166001600160a01b0389811691821790925591518793918516917fddf252ad1be2c89b69c2b068fc378daa952ba7f163c4a11628f55a4df523b3ef91a4949350505050565b600061157a83610a3f565b6000838152600760205260409020549091508082146115cd576001600160a01b03841660009081526006602090815260408083208584528252808320548484528184208190558352600790915290208190555b5060009182526007602090815260408084208490556001600160a01b039094168352600681528383209183525290812055565b60085460009061161290600190612036565b6000838152600960205260408120546008805493945090928490811061163a5761163a611fa1565b90600052602060002001549050806008838154811061165b5761165b611fa1565b600091825260208083209091019290925582815260099091526040808220849055858252812055600880548061169357611693612049565b6001900381819060005260206000200160009055905550505050565b600060016116bc84610a3f565b6116c69190612036565b6001600160a01b039093166000908152600660209081526040808320868452825280832085905593825260079052919091209190915550565b60006117146001600160a01b0384168361189e565b905080516000141580156117395750808060200190518101906117379190611e34565b155b156109d657604051635274afe760e01b81526001600160a01b03841660048201526024016105e6565b60008072184f03e93ff9f4daa797ed6e38ed64bf6a1f0160401b83106117a15772184f03e93ff9f4daa797ed6e38ed64bf6a1f0160401b830492506040015b6d04ee2d6d415b85acef810000000083106117cd576d04ee2d6d415b85acef8100000000830492506020015b662386f26fc1000083106117eb57662386f26fc10000830492506010015b6305f5e1008310611803576305f5e100830492506008015b612710831061181757612710830492506004015b60648310611829576064830492506002015b600a83106104515760010192915050565b6118458383836118ac565b6109d6576001600160a01b03831661187357604051637e27328960e01b8152600481018290526024016105e6565b60405163177e802f60e01b81526001600160a01b0383166004820152602481018290526044016105e6565b6060610d4d8383600061190f565b60006001600160a01b038316158015906110085750826001600160a01b0316846001600160a01b031614806118e657506118e68484610d54565b806110085750506000908152600460205260409020546001600160a01b03908116911614919050565b6060814710156119345760405163cd78605960e01b81523060048201526024016105e6565b600080856001600160a01b03168486604051611950919061205f565b60006040518083038185875af1925050503d806000811461198d576040519150601f19603f3d011682016040523d82523d6000602084013e611992565b606091505b50915091506119a28683836119ac565b9695505050505050565b6060826119c1576119bc82611a08565b610d4d565b81511580156119d857506001600160a01b0384163b155b15611a0157604051639996b31560e01b81526001600160a01b03851660048201526024016105e6565b5080610d4d565b805115611a185780518082602001fd5b604051630a12f52160e11b815260040160405180910390fd5b6001600160e01b031981168114610dbd57600080fd5b600060208284031215611a5957600080fd5b8135610d4d81611a31565b60005b83811015611a7f578181015183820152602001611a67565b50506000910152565b60008151808452611aa0816020860160208601611a64565b601f01601f19169290920160200192915050565b602081526000610d4d6020830184611a88565b600060208284031215611ad957600080fd5b5035919050565b80356001600160a01b0381168114611af757600080fd5b919050565b60008060408385031215611b0f57600080fd5b611b1883611ae0565b946020939093013593505050565b634e487b7160e01b600052604160045260246000fd5b600067ffffffffffffffff80841115611b5757611b57611b26565b604051601f8501601f19908116603f01168101908282118183101715611b7f57611b7f611b26565b81604052809350858152868686011115611b9857600080fd5b858560208301376000602087830101525050509392505050565b600082601f830112611bc357600080fd5b610d4d83833560208501611b3c565b600080600060608486031215611be757600080fd5b611bf084611ae0565b9250611bfe60208501611ae0565b9150604084013567ffffffffffffffff811115611c1a57600080fd5b611c2686828701611bb2565b9150509250925092565b600080600060608486031215611c4557600080fd5b611c4e84611ae0565b9250611c5c60208501611ae0565b9150604084013590509250925092565b600060208284031215611c7e57600080fd5b610d4d82611ae0565b60008060408385031215611c9a57600080fd5b82359150602083013567ffffffffffffffff811115611cb857600080fd5b611cc485828601611bb2565b9150509250929050565b8015158114610dbd57600080fd5b60008060408385031215611cef57600080fd5b611cf883611ae0565b91506020830135611d0881611cce565b809150509250929050565b60008060408385031215611d2657600080fd5b611d2f83611ae0565b9150602083013567ffffffffffffffff811115611cb857600080fd5b60008060008060808587031215611d6157600080fd5b611d6a85611ae0565b9350611d7860208601611ae0565b925060408501359150606085013567ffffffffffffffff811115611d9b57600080fd5b8501601f81018713611dac57600080fd5b611dbb87823560208401611b3c565b91505092959194509250565b60008060408385031215611dda57600080fd5b611de383611ae0565b9150611df160208401611ae0565b90509250929050565b600181811c90821680611e0e57607f821691505b602082108103611e2e57634e487b7160e01b600052602260045260246000fd5b50919050565b600060208284031215611e4657600080fd5b8151610d4d81611cce565b634e487b7160e01b600052601160045260246000fd5b8082018082111561045157610451611e51565b601f8211156109d657600081815260208120601f850160051c81016020861015611ea15750805b601f850160051c820191505b81811015611ec057828155600101611ead565b505050505050565b815167ffffffffffffffff811115611ee257611ee2611b26565b611ef681611ef08454611dfa565b84611e7a565b602080601f831160018114611f2b5760008415611f135750858301515b600019600386901b1c1916600185901b178555611ec0565b600085815260208120601f198616915b82811015611f5a57888601518255948401946001909101908401611f3b565b5085821015611f785787850151600019600388901b60f8161c191681555b5050505050600190811b01905550565b8281526040602082015260006110086040830184611a88565b634e487b7160e01b600052603260045260246000fd5b60008351611fc9818460208801611a64565b835190830190611fdd818360208801611a64565b01949350505050565b6001600160a01b03858116825284166020820152604081018390526080606082018190526000906119a290830184611a88565b60006020828403121561202b57600080fd5b8151610d4d81611a31565b8181038181111561045157610451611e51565b634e487b7160e01b600052603160045260246000fd5b60008251612071818460208701611a64565b919091019291505056fea2646970667358221220c0b3e42f7c7c92e28e947ff558bfdee524e6ae7ba0a501ac4fcd947d2717f10a64736f6c63430008150033",
    "linkReferences": {}
  },
  "methodIdentifiers": {
    "UPDATE_FEE()": "bf0e120b",
    "approve(address,uint256)": "095ea7b3",
    "arweaveId(uint256)": "911ed550",
    "balanceOf(address)": "70a08231",
    "getApproved(uint256)": "081812fc",
    "isApprovedForAll(address,address)": "e985e9c5",
    "isTrustedForwarder(address)": "572b6c05",
    "name()": "06fdde03",
    "owner()": "8da5cb5b",
    "ownerOf(uint256)": "6352211e",
    "registerMerchant(address,string)": "a6c8a384",
    "registerMerchantWithReferrer(address,address,string)": "1d19d0e4",
    "renounceOwnership()": "715018a6",
    "reputationRegistry()": "c8db44e3",
    "safeTransferFrom(address,address,uint256)": "42842e0e",
    "safeTransferFrom(address,address,uint256,bytes)": "b88d4fde",
    "setApprovalForAll(address,bool)": "a22cb465",
    "supportsInterface(bytes4)": "01ffc9a7",
    "symbol()": "95d89b41",
    "tokenByIndex(uint256)": "4f6ccce7",
    "tokenOfOwnerByIndex(address,uint256)": "2f745c59",
    "tokenURI(uint256)": "c87b56dd",
    "totalSupply()": "18160ddd",
    "transferFrom(address,address,uint256)": "23b872dd",
    "transferOwnership(address)": "f2fde38b",
    "trustedForwarder()": "7da0a877",
    "updateMerchantCall(uint256,string)": "9e6c58ba",
    "usdc()": "3e413bee"
  },
  "id": 49
}