{
  "abi": [
    {
      "inputs": [
        {
          "internalType": "address",
          "name": "_usdc",
          "type": "address"
        },
        {
          "internalType": "address",
          "name": "_reputationRegistry",
          "type": "address"
        },
        {
          "internalType": "address",
          "name": "_daoAddress",
          "type": "address"
        },
        {
          "internalType": "address",
          "name": "trustedForwarder",
          "type": "address"
        }
      ],
      "stateMutability": "nonpayable",
      "type": "constructor"
    },
    {
      "inputs": [
        {
          "internalType": "address",
          "name": "target",
          "type": "address"
        }
      ],
      "name": "AddressEmptyCode",
      "type": "error"
    },
    {
      "inputs": [
        {
          "internalType": "address",
          "name": "account",
          "type": "address"
        }
      ],
      "name": "AddressInsufficientBalance",
      "type": "error"
    },
    {
      "inputs": [],
      "name": "ERC721EnumerableForbiddenBatchMint",
      "type": "error"
    },
    {
      "inputs": [
        {
          "internalType": "address",
          "name": "sender",
          "type": "address"
        },
        {
          "internalType": "uint256",
          "name": "tokenId",
          "type": "uint256"
        },
        {
          "internalType": "address",
          "name": "owner",
          "type": "address"
        }
      ],
      "name": "ERC721IncorrectOwner",
      "type": "error"
    },
    {
      "inputs": [
        {
          "internalType": "address",
          "name": "operator",
          "type": "address"
        },
        {
          "internalType": "uint256",
          "name": "tokenId",
          "type": "uint256"
        }
      ],
      "name": "ERC721InsufficientApproval",
      "type": "error"
    },
    {
      "inputs": [
        {
          "internalType": "address",
          "name": "approver",
          "type": "address"
        }
      ],
      "name": "ERC721InvalidApprover",
      "type": "error"
    },
    {
      "inputs": [
        {
          "internalType": "address",
          "name": "operator",
          "type": "address"
        }
      ],
      "name": "ERC721InvalidOperator",
      "type": "error"
    },
    {
      "inputs": [
        {
          "internalType": "address",
          "name": "owner",
          "type": "address"
        }
      ],
      "name": "ERC721InvalidOwner",
      "type": "error"
    },
    {
      "inputs": [
        {
          "internalType": "address",
          "name": "receiver",
          "type": "address"
        }
      ],
      "name": "ERC721InvalidReceiver",
      "type": "error"
    },
    {
      "inputs": [
        {
          "internalType": "address",
          "name": "sender",
          "type": "address"
        }
      ],
      "name": "ERC721InvalidSender",
      "type": "error"
    },
    {
      "inputs": [
        {
          "internalType": "uint256",
          "name": "tokenId",
          "type": "uint256"
        }
      ],
      "name": "ERC721NonexistentToken",
      "type": "error"
    },
    {
      "inputs": [
        {
          "internalType": "address",
          "name": "owner",
          "type": "address"
        },
        {
          "internalType": "uint256",
          "name": "index",
          "type": "uint256"
        }
      ],
      "name": "ERC721OutOfBoundsIndex",
      "type": "error"
    },
    {
      "inputs": [],
      "name": "FailedInnerCall",
      "type": "error"
    },
    {
      "inputs": [
        {
          "internalType": "address",
          "name": "owner",
          "type": "address"
        }
      ],
      "name": "OwnableInvalidOwner",
      "type": "error"
    },
    {
      "inputs": [
        {
          "internalType": "address",
          "name": "account",
          "type": "address"
        }
      ],
      "name": "OwnableUnauthorizedAccount",
      "type": "error"
    },
    {
      "inputs": [
        {
          "internalType": "address",
          "name": "token",
          "type": "address"
        }
      ],
      "name": "SafeERC20FailedOperation",
      "type": "error"
    },
    {
      "anonymous": false,
      "inputs": [
        {
          "indexed": true,
          "internalType": "address",
          "name": "owner",
          "type": "address"
        },
        {
          "indexed": true,
          "internalType": "address",
          "name": "approved",
          "type": "address"
        },
        {
          "indexed": true,
          "internalType": "uint256",
          "name": "tokenId",
          "type": "uint256"
        }
      ],
      "name": "Approval",
      "type": "event"
    },
    {
      "anonymous": false,
      "inputs": [
        {
          "indexed": true,
          "internalType": "address",
          "name": "owner",
          "type": "address"
        },
        {
          "indexed": true,
          "internalType": "address",
          "name": "operator",
          "type": "address"
        },
        {
          "indexed": false,
          "internalType": "bool",
          "name": "approved",
          "type": "bool"
        }
      ],
      "name": "ApprovalForAll",
      "type": "event"
    },
    {
      "anonymous": false,
      "inputs": [
        {
          "indexed": true,
          "internalType": "uint256",
          "name": "tokenId",
          "type": "uint256"
        },
        {
          "indexed": false,
          "internalType": "string",
          "name": "newArweaveId",
          "type": "string"
        }
      ],
      "name": "ArweaveIdUpdated",
      "type": "event"
    },
    {
      "anonymous": false,
      "inputs": [
        {
          "indexed": true,
          "internalType": "address",
          "name": "merchant",
          "type": "address"
        },
        {
          "indexed": true,
          "internalType": "address",
          "name": "referrer",
          "type": "address"
        },
        {
          "indexed": false,
          "internalType": "uint256",
          "name": "tokenId",
          "type": "uint256"
        }
      ],
      "name": "MerchantRegistered",
      "type": "event"
    },
    {
      "anonymous": false,
      "inputs": [
        {
          "indexed": true,
          "internalType": "address",
          "name": "previousOwner",
          "type": "address"
        },
        {
          "indexed": true,
          "internalType": "address",
          "name": "newOwner",
          "type": "address"
        }
      ],
      "name": "OwnershipTransferred",
      "type": "event"
    },
    {
      "anonymous": false,
      "inputs": [
        {
          "indexed": true,
          "internalType": "address",
          "name": "from",
          "type": "address"
        },
        {
          "indexed": true,
          "internalType": "address",
          "name": "to",
          "type": "address"
        },
        {
          "indexed": true,
          "internalType": "uint256",
          "name": "tokenId",
          "type": "uint256"
        }
      ],
      "name": "Transfer",
      "type": "event"
    },
    {
      "inputs": [],
      "name": "UPDATE_FEE",
      "outputs": [
        {
          "internalType": "uint256",
          "name": "",
          "type": "uint256"
        }
      ],
      "stateMutability": "view",
      "type": "function"
    },
    {
      "inputs": [
        {
          "internalType": "address",
          "name": "to",
          "type": "address"
        },
        {
          "internalType": "uint256",
          "name": "tokenId",
          "type": "uint256"
        }
      ],
      "name": "approve",
      "outputs": [],
      "stateMutability": "nonpayable",
      "type": "function"
    },
    {
      "inputs": [
        {
          "internalType": "uint256",
          "name": "",
          "type": "uint256"
        }
      ],
      "name": "arweaveId",
      "outputs": [
        {
          "internalType": "string",
          "name": "",
          "type": "string"
        }
      ],
      "stateMutability": "view",
      "type": "function"
    },
    {
      "inputs": [
        {
          "internalType": "address",
          "name": "owner",
          "type": "address"
        }
      ],
      "name": "balanceOf",
      "outputs": [
        {
          "internalType": "uint256",
          "name": "",
          "type": "uint256"
        }
      ],
      "stateMutability": "view",
      "type": "function"
    },
    {
      "inputs": [
        {
          "internalType": "uint256",
          "name": "tokenId",
          "type": "uint256"
        }
      ],
      "name": "getApproved",
      "outputs": [
        {
          "internalType": "address",
          "name": "",
          "type": "address"
        }
      ],
      "stateMutability": "view",
      "type": "function"
    },
    {
      "inputs": [
        {
          "internalType": "address",
          "name": "owner",
          "type": "address"
        },
        {
          "internalType": "address",
          "name": "operator",
          "type": "address"
        }
      ],
      "name": "isApprovedForAll",
      "outputs": [
        {
          "internalType": "bool",
          "name": "",
          "type": "bool"
        }
      ],
      "stateMutability": "view",
      "type": "function"
    },
    {
      "inputs": [
        {
          "internalType": "address",
          "name": "forwarder",
          "type": "address"
        }
      ],
      "name": "isTrustedForwarder",
      "outputs": [
        {
          "internalType": "bool",
          "name": "",
          "type": "bool"
        }
      ],
      "stateMutability": "view",
      "type": "function"
    },
    {
      "inputs": [],
      "name": "name",
      "outputs": [
        {
          "internalType": "string",
          "name": "",
          "type": "string"
        }
      ],
      "stateMutability": "view",
      "type": "function"
    },
    {
      "inputs": [],
      "name": "owner",
      "outputs": [
        {
          "internalType": "address",
          "name": "",
          "type": "address"
        }
      ],
      "stateMutability": "view",
      "type": "function"
    },
    {
      "inputs": [
        {
          "internalType": "uint256",
          "name": "tokenId",
          "type": "uint256"
        }
      ],
      "name": "ownerOf",
      "outputs": [
        {
          "internalType": "address",
          "name": "",
          "type": "address"
        }
      ],
      "stateMutability": "view",
      "type": "function"
    },
    {
      "inputs": [
        {
          "internalType": "address",
          "name": "merchant",
          "type": "address"
        },
        {
          "internalType": "string",
          "name": "_arweaveId",
          "type": "string"
        }
      ],
      "name": "registerMerchant",
      "outputs": [],
      "stateMutability": "nonpayable",
      "type": "function"
    },
    {
      "inputs": [
        {
          "internalType": "address",
          "name": "merchant",
          "type": "address"
        },
        {
          "internalType": "address",
          "name": "referrer",
          "type": "address"
        },
        {
          "internalType": "string",
          "name": "_arweaveId",
          "type": "string"
        }
      ],
      "name": "registerMerchantWithReferrer",
      "outputs": [],
      "stateMutability": "nonpayable",
      "type": "function"
    },
    {
      "inputs": [],
      "name": "renounceOwnership",
      "outputs": [],
      "stateMutability": "nonpayable",
      "type": "function"
    },
    {
      "inputs": [],
      "name": "reputationRegistry",
      "outputs": [
        {
          "internalType": "contract ReputationRegistry",
          "name": "",
          "type": "address"
        }
      ],
      "stateMutability": "view",
      "type": "function"
    },
    {
      "inputs": [
        {
          "internalType": "address",
          "name": "from",
          "type": "address"
        },
        {
          "internalType": "address",
          "name": "to",
          "type": "address"
        },
        {
          "internalType": "uint256",
          "name": "tokenId",
          "type": "uint256"
        }
      ],
      "name": "safeTransferFrom",
      "outputs": [],
      "stateMutability": "nonpayable",
      "type": "function"
    },
    {
      "inputs": [
        {
          "internalType": "address",
          "name": "from",
          "type": "address"
        },
        {
          "internalType": "address",
          "name": "to",
          "type": "address"
        },
        {
          "internalType": "uint256",
          "name": "tokenId",
          "type": "uint256"
        },
        {
          "internalType": "bytes",
          "name": "data",
          "type": "bytes"
        }
      ],
      "name": "safeTransferFrom",
      "outputs": [],
      "stateMutability": "nonpayable",
      "type": "function"
    },
    {
      "inputs": [
        {
          "internalType": "address",
          "name": "operator",
          "type": "address"
        },
        {
          "internalType": "bool",
          "name": "approved",
          "type": "bool"
        }
      ],
      "name": "setApprovalForAll",
      "outputs": [],
      "stateMutability": "nonpayable",
      "type": "function"
    },
    {
      "inputs": [
        {
          "internalType": "bytes4",
          "name": "interfaceId",
          "type": "bytes4"
        }
      ],
      "name": "supportsInterface",
      "outputs": [
        {
          "internalType": "bool",
          "name": "",
          "type": "bool"
        }
      ],
      "stateMutability": "view",
      "type": "function"
    },
    {
      "inputs": [],
      "name": "symbol",
      "outputs": [
        {
          "internalType": "string",
          "name": "",
          "type": "string"
        }
      ],
      "stateMutability": "view",
      "type": "function"
    },
    {
      "inputs": [
        {
          "internalType": "uint256",
          "name": "index",
          "type": "uint256"
        }
      ],
      "name": "tokenByIndex",
      "outputs": [
        {
          "internalType": "uint256",
          "name": "",
          "type": "uint256"
        }
      ],
      "stateMutability": "view",
      "type": "function"
    },
    {
      "inputs": [
        {
          "internalType": "address",
          "name": "owner",
          "type": "address"
        },
        {
          "internalType": "uint256",
          "name": "index",
          "type": "uint256"
        }
      ],
      "name": "tokenOfOwnerByIndex",
      "outputs": [
        {
          "internalType": "uint256",
          "name": "",
          "type": "uint256"
        }
      ],
      "stateMutability": "view",
      "type": "function"
    },
    {
      "inputs": [
        {
          "internalType": "uint256",
          "name": "tokenId",
          "type": "uint256"
        }
      ],
      "name": "tokenURI",
      "outputs": [
        {
          "internalType": "string",
          "name": "",
          "type": "string"
        }
      ],
      "stateMutability": "view",
      "type": "function"
    },
    {
      "inputs": [],
      "name": "totalSupply",
      "outputs": [
        {
          "internalType": "uint256",
          "name": "",
          "type": "uint256"
        }
      ],
      "stateMutability": "view",
      "type": "function"
    },
    {
      "inputs": [
        {
          "internalType": "address",
          "name": "from",
          "type": "address"
        },
        {
          "internalType": "address",
          "name": "to",
          "type": "address"
        },
        {
          "internalType": "uint256",
          "name": "tokenId",
          "type": "uint256"
        }
      ],
      "name": "transferFrom",
      "outputs": [],
      "stateMutability": "nonpayable",
      "type": "function"
    },
    {
      "inputs": [
        {
          "internalType": "address",
          "name": "newOwner",
          "type": "address"
        }
      ],
      "name": "transferOwnership",
      "outputs": [],
      "stateMutability": "nonpayable",
      "type": "function"
    },
    {
      "inputs": [],
      "name": "trustedForwarder",
      "outputs": [
        {
          "internalType": "address",
          "name": "",
          "type": "address"
        }
      ],
      "stateMutability": "view",
      "type": "function"
    },
    {
      "inputs": [
        {
          "internalType": "uint256",
          "name": "tokenId",
          "type": "uint256"
        },
        {
          "internalType": "string",
          "name": "_arweaveId",
          "type": "string"
        }
      ],
      "name": "updateMerchantCall",
      "outputs": [],
      "stateMutability": "nonpayable",
      "type": "function"
    },
    {
      "inputs": [],
      "name": "usdc",
      "outputs": [
        {
          "internalType": "contract IERC20",
          "name": "",
          "type": "address"
        }
      ],
      "stateMutability": "view",
      "type": "function"
    }
  ],
  "bytecode": {
    "object": "0x60a06040523480156200001157600080fd5b506040516200241138038062002411833981016040819052620000349162000180565b81816040518060400160405280600a81526020016913595c98da185b9d125160b21b8152506040518060400160405280600381526020016213525160ea1b815250816000908162000086919062000282565b50600162000095828262000282565b5050506001600160a01b039081166080528116620000cd57604051631e4fbdf760e01b81526000600482015260240160405180910390fd5b620000d88162000111565b5050600b80546001600160a01b039485166001600160a01b031991821617909155600c805493909416921691909117909155506200034e565b600a80546001600160a01b038381166001600160a01b0319831681179093556040519116919082907f8be0079c531659141344cd1fd0a4f28419497f9722a3daafe3b4186f6b6457e090600090a35050565b80516001600160a01b03811681146200017b57600080fd5b919050565b600080600080608085870312156200019757600080fd5b620001a28562000163565b9350620001b26020860162000163565b9250620001c26040860162000163565b9150620001d26060860162000163565b905092959194509250565b634e487b7160e01b600052604160045260246000fd5b600181811c908216806200020857607f821691505b6020821081036200022957634e487b7160e01b600052602260045260246000fd5b50919050565b601f8211156200027d57600081815260208120601f850160051c81016020861015620002585750805b601f850160051c820191505b81811015620002795782815560010162000264565b5050505b505050565b81516001600160401b038111156200029e576200029e620001dd565b620002b681620002af8454620001f3565b846200022f565b602080601f831160018114620002ee5760008415620002d55750858301515b600019600386901b1c1916600185901b17855562000279565b600085815260208120601f198616915b828110156200031f57888601518255948401946001909101908401620002fe565b50858210156200033e5787850151600019600388901b60f8161c191681555b5050505050600190811b01905550565b60805161209962000378600039600081816102da0152818161033a015261132301526120996000f3fe608060405234801561001057600080fd5b50600436106101c45760003560e01c8063715018a6116100f9578063a6c8a38411610097578063c87b56dd11610071578063c87b56dd146103e0578063c8db44e3146103f3578063e985e9c514610406578063f2fde38b1461041957600080fd5b8063a6c8a384146103b0578063b88d4fde146103c3578063bf0e120b146103d657600080fd5b8063911ed550116100d3578063911ed5501461036f57806395d89b41146103825780639e6c58ba1461038a578063a22cb4651461039d57600080fd5b8063715018a6146103305780637da0a877146103385780638da5cb5b1461035e57600080fd5b80632f745c59116101665780634f6ccce7116101405780634f6ccce7146102b7578063572b6c05146102ca5780636352211e1461030a57806370a082311461031d57600080fd5b80632f745c591461027e5780633e413bee1461029157806342842e0e146102a457600080fd5b8063095ea7b3116101a2578063095ea7b31461023157806318160ddd146102465780631d19d0e41461025857806323b872dd1461026b57600080fd5b806301ffc9a7146101c957806306fdde03146101f1578063081812fc14610206575b600080fd5b6101dc6101d7366004611a48565b61042c565b60405190151581526020015b60405180910390f35b6101f9610457565b6040516101e89190611ab5565b610219610214366004611ac8565b6104e9565b6040516001600160a01b0390911681526020016101e8565b61024461023f366004611afd565b610512565b005b6008545b6040519081526020016101e8565b610244610266366004611bd3565b610528565b610244610279366004611c31565b6108ce565b61024a61028c366004611afd565b610960565b600b54610219906001600160a01b031681565b6102446102b2366004611c31565b6109c5565b61024a6102c5366004611ac8565b6109e5565b6101dc6102d8366004611c6d565b7f00000000000000000000000000000000000000000000000000000000000000006001600160a01b0390811691161490565b610219610318366004611ac8565b610a3e565b61024a61032b366004611c6d565b610a49565b610244610a91565b7f0000000000000000000000000000000000000000000000000000000000000000610219565b600a546001600160a01b0316610219565b6101f961037d366004611ac8565b610aa5565b6101f9610b3f565b610244610398366004611c88565b610b4e565b6102446103ab366004611cdd565b610c35565b6102446103be366004611d14565b610c47565b6102446103d1366004611d4c565b610cd1565b61024a6298968081565b6101f96103ee366004611ac8565b610ce8565b600c54610219906001600160a01b031681565b6101dc610414366004611dc8565b610d5d565b610244610427366004611c6d565b610d8b565b60006001600160e01b0319821663780e9d6360e01b1480610451575061045182610dc9565b92915050565b60606000805461046690611dfb565b80601f016020809104026020016040519081016040528092919081815260200182805461049290611dfb565b80156104df5780601f106104b4576101008083540402835291602001916104df565b820191906000526020600020905b8154815290600101906020018083116104c257829003601f168201915b5050505050905090565b60006104f482610e19565b506000828152600460205260409020546001600160a01b0316610451565b610524828261051f610e52565b610e61565b5050565b610530610e6e565b600c5460405163c3c5a54760e01b81526001600160a01b0384811660048301529091169063c3c5a54790602401602060405180830381865afa15801561057a573d6000803e3d6000fd5b505050506040513d601f19601f8201168201806040525081019061059e9190611e35565b6105ef5760405162461bcd60e51b815260206004820152601760248201527f5265666572726572206e6f74207265676973746572656400000000000000000060448201526064015b60405180910390fd5b6105f883610ecc565b156106455760405162461bcd60e51b815260206004820152601b60248201527f4d65726368616e7420616c72656164792072656769737465726564000000000060448201526064016105e6565b600c5460405163c3c5a54760e01b81526001600160a01b0385811660048301529091169063c3c5a54790602401602060405180830381865afa15801561068f573d6000803e3d6000fd5b505050506040513d601f19601f820116820180604052508101906106b39190611e35565b1561071b5760405162461bcd60e51b815260206004820152603260248201527f4d65726368616e742073686f756c64206e6f74206265207265676973746572656044820152711908185cc8184818da5d1a5e995b881e595d60721b60648201526084016105e6565b600061072660085490565b610731906001611e68565b905061073d8482610edf565b6000818152600d602052604090206107558382611ec9565b50600c5460405163e948712360e01b81526001600160a01b03868116600483015285811660248301529091169063e948712390604401600060405180830381600087803b1580156107a557600080fd5b505af11580156107b9573d6000803e3d6000fd5b5050600c5460405163c6f743f160e01b81526001600160a01b038881166004830152909116925063c6f743f19150602401600060405180830381600087803b15801561080457600080fd5b505af1158015610818573d6000803e3d6000fd5b5050600c54604051634c7af49d60e01b81526001600160a01b0387811660048301529091169250634c7af49d9150602401600060405180830381600087803b15801561086357600080fd5b505af1158015610877573d6000803e3d6000fd5b50505050826001600160a01b0316846001600160a01b03167f5f367d5bd8e66a8b432f8d7035db2e2c15d7d6b5c512af8e56c8b3a33b5c2618836040516108c091815260200190565b60405180910390a350505050565b6001600160a01b0382166108f857604051633250574960e11b8152600060048201526024016105e6565b600061090c8383610907610e52565b610f44565b9050836001600160a01b0316816001600160a01b03161461095a576040516364283d7b60e01b81526001600160a01b03808616600483015260248201849052821660448201526064016105e6565b50505050565b600061096b83610a49565b821061099c5760405163295f44f760e21b81526001600160a01b0384166004820152602481018390526044016105e6565b506001600160a01b03919091166000908152600660209081526040808320938352929052205490565b6109e083838360405180602001604052806000815250610cd1565b505050565b60006109f060085490565b8210610a195760405163295f44f760e21b815260006004820152602481018390526044016105e6565b60088281548110610a2c57610a2c611f89565b90600052602060002001549050919050565b600061045182610e19565b60006001600160a01b038216610a75576040516322718ad960e21b8152600060048201526024016105e6565b506001600160a01b031660009081526003602052604090205490565b610a99610e6e565b610aa36000611019565b565b600d6020526000908152604090208054610abe90611dfb565b80601f0160208091040260200160405190810160405280929190818152602001828054610aea90611dfb565b8015610b375780601f10610b0c57610100808354040283529160200191610b37565b820191906000526020600020905b815481529060010190602001808311610b1a57829003601f168201915b505050505081565b60606001805461046690611dfb565b610b56610e52565b6001600160a01b0316610b6883610a3e565b6001600160a01b031614610bbe5760405162461bcd60e51b815260206004820152601b60248201527f4e6f7420746865206f776e6572206f66204d65726368616e744944000000000060448201526064016105e6565b610be0610bc9610e52565b600b546001600160a01b031690306298968061106b565b6000828152600d60205260409020610bf88282611ec9565b50817f2e1ddea49b4746cf23531a4712360c13bb9d1e1dcdba33336f52cfda7d485c9582604051610c299190611ab5565b60405180910390a25050565b610524610c40610e52565b83836110c5565b610c4f610e6e565b6000610c5a60085490565b610c65906001611e68565b9050610c718382610edf565b6000818152600d60205260409020610c898382611ec9565b506040518181526000906001600160a01b038516907f5f367d5bd8e66a8b432f8d7035db2e2c15d7d6b5c512af8e56c8b3a33b5c2618906020015b60405180910390a3505050565b610cdc8484846108ce565b61095a8484848461115c565b6060610cf382610e19565b506000610d0b60408051602081019091526000815290565b90506000815111610d2b5760405180602001604052806000815250610d56565b80610d358461128c565b604051602001610d46929190611f9f565b6040516020818303038152906040525b9392505050565b6001600160a01b03918216600090815260056020908152604080832093909416825291909152205460ff1690565b610d93610e6e565b6001600160a01b038116610dbd57604051631e4fbdf760e01b8152600060048201526024016105e6565b610dc681611019565b50565b60006001600160e01b031982166380ac58cd60e01b1480610dfa57506001600160e01b03198216635b5e139f60e01b145b8061045157506301ffc9a760e01b6001600160e01b0319831614610451565b6000818152600260205260408120546001600160a01b03168061045157604051637e27328960e01b8152600481018490526024016105e6565b6000610e5c61131f565b905090565b6109e08383836001611371565b610e76610e52565b6001600160a01b0316610e91600a546001600160a01b031690565b6001600160a01b031614610aa357610ea7610e52565b60405163118cdaa760e01b81526001600160a01b0390911660048201526024016105e6565b600080610ed883610a49565b1192915050565b6001600160a01b038216610f0957604051633250574960e11b8152600060048201526024016105e6565b6000610f1783836000610f44565b90506001600160a01b038116156109e0576040516339e3563760e11b8152600060048201526024016105e6565b600080610f52858585611477565b90506001600160a01b038116610faf57610faa84600880546000838152600960205260408120829055600182018355919091527ff3f7a9fe364faab93b216da50a3214154f22a0a2b415b23a84c8169e8b636ee30155565b610fd2565b846001600160a01b0316816001600160a01b031614610fd257610fd28185611570565b6001600160a01b038516610fee57610fe984611601565b611011565b846001600160a01b0316816001600160a01b0316146110115761101185856116b0565b949350505050565b600a80546001600160a01b038381166001600160a01b0319831681179093556040519116919082907f8be0079c531659141344cd1fd0a4f28419497f9722a3daafe3b4186f6b6457e090600090a35050565b604080516001600160a01b0385811660248301528416604482015260648082018490528251808303909101815260849091019091526020810180516001600160e01b03166323b872dd60e01b17905261095a908590611700565b6001600160a01b0382166110f757604051630b61174360e31b81526001600160a01b03831660048201526024016105e6565b6001600160a01b03838116600081815260056020908152604080832094871680845294825291829020805460ff191686151590811790915591519182527f17307eab39ab6107e8899845ad3d59bd9653f200f220920489ca2b5937696c319101610cc4565b6001600160a01b0383163b1561095a57826001600160a01b031663150b7a02611183610e52565b8685856040518563ffffffff1660e01b81526004016111a59493929190611fce565b6020604051808303816000875af19250505080156111e0575060408051601f3d908101601f191682019092526111dd91810190612001565b60015b611249573d80801561120e576040519150601f19603f3d011682016040523d82523d6000602084013e611213565b606091505b50805160000361124157604051633250574960e11b81526001600160a01b03851660048201526024016105e6565b805181602001fd5b6001600160e01b03198116630a85bd0160e11b1461128557604051633250574960e11b81526001600160a01b03851660048201526024016105e6565b5050505050565b6060600061129983611763565b600101905060008167ffffffffffffffff8111156112b9576112b9611b27565b6040519080825280601f01601f1916602001820160405280156112e3576020820181803683370190505b5090508181016020015b600019016f181899199a1a9b1b9c1cb0b131b232b360811b600a86061a8153600a85049450846112ed57509392505050565b60007f00000000000000000000000000000000000000000000000000000000000000006001600160a01b03163314801561135a575060143610155b1561136c575060131936013560601c90565b503390565b808061138557506001600160a01b03821615155b1561144757600061139584610e19565b90506001600160a01b038316158015906113c15750826001600160a01b0316816001600160a01b031614155b80156113d457506113d28184610d5d565b155b156113fd5760405163a9fbf51f60e01b81526001600160a01b03841660048201526024016105e6565b81156114455783856001600160a01b0316826001600160a01b03167f8c5be1e5ebec7d5bd14f71427d1e84f3dd0314c0f7b2291e5b200ac8c7c3b92560405160405180910390a45b505b5050600090815260046020526040902080546001600160a01b0319166001600160a01b0392909216919091179055565b6000828152600260205260408120546001600160a01b03908116908316156114a4576114a481848661183b565b6001600160a01b038116156114e2576114c1600085600080611371565b6001600160a01b038116600090815260036020526040902080546000190190555b6001600160a01b03851615611511576001600160a01b0385166000908152600360205260409020805460010190555b60008481526002602052604080822080546001600160a01b0319166001600160a01b0389811691821790925591518793918516917fddf252ad1be2c89b69c2b068fc378daa952ba7f163c4a11628f55a4df523b3ef91a4949350505050565b600061157b83610a49565b6000838152600760205260409020549091508082146115ce576001600160a01b03841660009081526006602090815260408083208584528252808320548484528184208190558352600790915290208190555b5060009182526007602090815260408084208490556001600160a01b039094168352600681528383209183525290812055565b6008546000906116139060019061201e565b6000838152600960205260408120546008805493945090928490811061163b5761163b611f89565b90600052602060002001549050806008838154811061165c5761165c611f89565b600091825260208083209091019290925582815260099091526040808220849055858252812055600880548061169457611694612031565b6001900381819060005260206000200160009055905550505050565b600060016116bd84610a49565b6116c7919061201e565b6001600160a01b039093166000908152600660209081526040808320868452825280832085905593825260079052919091209190915550565b60006117156001600160a01b0384168361189f565b9050805160001415801561173a5750808060200190518101906117389190611e35565b155b156109e057604051635274afe760e01b81526001600160a01b03841660048201526024016105e6565b60008072184f03e93ff9f4daa797ed6e38ed64bf6a1f0160401b83106117a25772184f03e93ff9f4daa797ed6e38ed64bf6a1f0160401b830492506040015b6d04ee2d6d415b85acef810000000083106117ce576d04ee2d6d415b85acef8100000000830492506020015b662386f26fc1000083106117ec57662386f26fc10000830492506010015b6305f5e1008310611804576305f5e100830492506008015b612710831061181857612710830492506004015b6064831061182a576064830492506002015b600a83106104515760010192915050565b6118468383836118ad565b6109e0576001600160a01b03831661187457604051637e27328960e01b8152600481018290526024016105e6565b60405163177e802f60e01b81526001600160a01b0383166004820152602481018290526044016105e6565b6060610d5683836000611910565b60006001600160a01b038316158015906110115750826001600160a01b0316846001600160a01b031614806118e757506118e78484610d5d565b806110115750506000908152600460205260409020546001600160a01b03908116911614919050565b6060814710156119355760405163cd78605960e01b81523060048201526024016105e6565b600080856001600160a01b031684866040516119519190612047565b60006040518083038185875af1925050503d806000811461198e576040519150601f19603f3d011682016040523d82523d6000602084013e611993565b606091505b50915091506119a38683836119ad565b9695505050505050565b6060826119c2576119bd82611a09565b610d56565b81511580156119d957506001600160a01b0384163b155b15611a0257604051639996b31560e01b81526001600160a01b03851660048201526024016105e6565b5080610d56565b805115611a195780518082602001fd5b604051630a12f52160e11b815260040160405180910390fd5b6001600160e01b031981168114610dc657600080fd5b600060208284031215611a5a57600080fd5b8135610d5681611a32565b60005b83811015611a80578181015183820152602001611a68565b50506000910152565b60008151808452611aa1816020860160208601611a65565b601f01601f19169290920160200192915050565b602081526000610d566020830184611a89565b600060208284031215611ada57600080fd5b5035919050565b80356001600160a01b0381168114611af857600080fd5b919050565b60008060408385031215611b1057600080fd5b611b1983611ae1565b946020939093013593505050565b634e487b7160e01b600052604160045260246000fd5b600067ffffffffffffffff80841115611b5857611b58611b27565b604051601f8501601f19908116603f01168101908282118183101715611b8057611b80611b27565b81604052809350858152868686011115611b9957600080fd5b858560208301376000602087830101525050509392505050565b600082601f830112611bc457600080fd5b610d5683833560208501611b3d565b600080600060608486031215611be857600080fd5b611bf184611ae1565b9250611bff60208501611ae1565b9150604084013567ffffffffffffffff811115611c1b57600080fd5b611c2786828701611bb3565b9150509250925092565b600080600060608486031215611c4657600080fd5b611c4f84611ae1565b9250611c5d60208501611ae1565b9150604084013590509250925092565b600060208284031215611c7f57600080fd5b610d5682611ae1565b60008060408385031215611c9b57600080fd5b82359150602083013567ffffffffffffffff811115611cb957600080fd5b611cc585828601611bb3565b9150509250929050565b8015158114610dc657600080fd5b60008060408385031215611cf057600080fd5b611cf983611ae1565b91506020830135611d0981611ccf565b809150509250929050565b60008060408385031215611d2757600080fd5b611d3083611ae1565b9150602083013567ffffffffffffffff811115611cb957600080fd5b60008060008060808587031215611d6257600080fd5b611d6b85611ae1565b9350611d7960208601611ae1565b925060408501359150606085013567ffffffffffffffff811115611d9c57600080fd5b8501601f81018713611dad57600080fd5b611dbc87823560208401611b3d565b91505092959194509250565b60008060408385031215611ddb57600080fd5b611de483611ae1565b9150611df260208401611ae1565b90509250929050565b600181811c90821680611e0f57607f821691505b602082108103611e2f57634e487b7160e01b600052602260045260246000fd5b50919050565b600060208284031215611e4757600080fd5b8151610d5681611ccf565b634e487b7160e01b600052601160045260246000fd5b8082018082111561045157610451611e52565b601f8211156109e057600081815260208120601f850160051c81016020861015611ea25750805b601f850160051c820191505b81811015611ec157828155600101611eae565b505050505050565b815167ffffffffffffffff811115611ee357611ee3611b27565b611ef781611ef18454611dfb565b84611e7b565b602080601f831160018114611f2c5760008415611f145750858301515b600019600386901b1c1916600185901b178555611ec1565b600085815260208120601f198616915b82811015611f5b57888601518255948401946001909101908401611f3c565b5085821015611f795787850151600019600388901b60f8161c191681555b5050505050600190811b01905550565b634e487b7160e01b600052603260045260246000fd5b60008351611fb1818460208801611a65565b835190830190611fc5818360208801611a65565b01949350505050565b6001600160a01b03858116825284166020820152604081018390526080606082018190526000906119a390830184611a89565b60006020828403121561201357600080fd5b8151610d5681611a32565b8181038181111561045157610451611e52565b634e487b7160e01b600052603160045260246000fd5b60008251612059818460208701611a65565b919091019291505056fea2646970667358221220f79a3fab5530e9f760face2e7a1ccd0e1a31c6926c72a990ad6470b6c8c5ec2a64736f6c63430008150033",
    "linkReferences": {}
  },
  "methodIdentifiers": {
    "UPDATE_FEE()": "bf0e120b",
    "approve(address,uint256)": "095ea7b3",
    "arweaveId(uint256)": "911ed550",
    "balanceOf(address)": "70a08231",
    "getApproved(uint256)": "081812fc",
    "isApprovedForAll(address,address)": "e985e9c5",
    "isTrustedForwarder(address)": "572b6c05",
    "name()": "06fdde03",
    "owner()": "8da5cb5b",
    "ownerOf(uint256)": "6352211e",
    "registerMerchant(address,string)": "a6c8a384",
    "registerMerchantWithReferrer(address,address,string)": "1d19d0e4",
    "renounceOwnership()": "715018a6",
    "reputationRegistry()": "c8db44e3",
    "safeTransferFrom(address,address,uint256)": "42842e0e",
    "safeTransferFrom(address,address,uint256,bytes)": "b88d4fde",
    "setApprovalForAll(address,bool)": "a22cb465",
    "supportsInterface(bytes4)": "01ffc9a7",
    "symbol()": "95d89b41",
    "tokenByIndex(uint256)": "4f6ccce7",
    "tokenOfOwnerByIndex(address,uint256)": "2f745c59",
    "tokenURI(uint256)": "c87b56dd",
    "totalSupply()": "18160ddd",
    "transferFrom(address,address,uint256)": "23b872dd",
    "transferOwnership(address)": "f2fde38b",
    "trustedForwarder()": "7da0a877",
    "updateMerchantCall(uint256,string)": "9e6c58ba",
    "usdc()": "3e413bee"
  },
  "id": 49
}