{
  "_format": "hh-sol-artifact-1",
  "contractName": "MerchantRegistry",
  "sourceName": "contracts/MerchantRegistry.sol",
  "abi": [
    {
      "inputs": [
        {
          "internalType": "address",
          "name": "_merchantIDAddress",
          "type": "address"
        }
      ],
      "stateMutability": "nonpayable",
      "type": "constructor"
    },
    {
      "anonymous": false,
      "inputs": [
        {
          "indexed": true,
          "internalType": "address",
          "name": "merchantAddress",
          "type": "address"
        },
        {
          "indexed": false,
          "internalType": "uint256",
          "name": "merchantId",
          "type": "uint256"
        },
        {
          "indexed": false,
          "internalType": "string",
          "name": "arweaveID",
          "type": "string"
        }
      ],
      "name": "NewMerchantRegistered",
      "type": "event"
    },
    {
      "anonymous": false,
      "inputs": [
        {
          "indexed": true,
          "internalType": "address",
          "name": "previousOwner",
          "type": "address"
        },
        {
          "indexed": true,
          "internalType": "address",
          "name": "newOwner",
          "type": "address"
        }
      ],
      "name": "OwnershipTransferred",
      "type": "event"
    },
    {
      "inputs": [],
      "name": "merchantIDContract",
      "outputs": [
        {
          "internalType": "contract MerchantID",
          "name": "",
          "type": "address"
        }
      ],
      "stateMutability": "view",
      "type": "function"
    },
    {
      "inputs": [
        {
          "internalType": "address",
          "name": "",
          "type": "address"
        }
      ],
      "name": "merchantIDsRegistry",
      "outputs": [
        {
          "internalType": "uint256",
          "name": "",
          "type": "uint256"
        }
      ],
      "stateMutability": "view",
      "type": "function"
    },
    {
      "inputs": [],
      "name": "owner",
      "outputs": [
        {
          "internalType": "address",
          "name": "",
          "type": "address"
        }
      ],
      "stateMutability": "view",
      "type": "function"
    },
    {
      "inputs": [
        {
          "internalType": "address",
          "name": "merchantAddress",
          "type": "address"
        },
        {
          "internalType": "string",
          "name": "arweaveID",
          "type": "string"
        }
      ],
      "name": "register",
      "outputs": [],
      "stateMutability": "nonpayable",
      "type": "function"
    },
    {
      "inputs": [],
      "name": "renounceOwnership",
      "outputs": [],
      "stateMutability": "nonpayable",
      "type": "function"
    },
    {
      "inputs": [
        {
          "internalType": "address",
          "name": "newOwner",
          "type": "address"
        }
      ],
      "name": "transferOwnership",
      "outputs": [],
      "stateMutability": "nonpayable",
      "type": "function"
    }
  ],
  "bytecode": "0x608060405234801561001057600080fd5b50604051610d0d380380610d0d833981810160405281019061003291906101c4565b61004e61004361009560201b60201c565b61009d60201b60201c565b80600160006101000a81548173ffffffffffffffffffffffffffffffffffffffff021916908373ffffffffffffffffffffffffffffffffffffffff160217905550506101f1565b600033905090565b60008060009054906101000a900473ffffffffffffffffffffffffffffffffffffffff169050816000806101000a81548173ffffffffffffffffffffffffffffffffffffffff021916908373ffffffffffffffffffffffffffffffffffffffff1602179055508173ffffffffffffffffffffffffffffffffffffffff168173ffffffffffffffffffffffffffffffffffffffff167f8be0079c531659141344cd1fd0a4f28419497f9722a3daafe3b4186f6b6457e060405160405180910390a35050565b600080fd5b600073ffffffffffffffffffffffffffffffffffffffff82169050919050565b600061019182610166565b9050919050565b6101a181610186565b81146101ac57600080fd5b50565b6000815190506101be81610198565b92915050565b6000602082840312156101da576101d9610161565b5b60006101e8848285016101af565b91505092915050565b610b0d806102006000396000f3fe608060405234801561001057600080fd5b50600436106100625760003560e01c806332434a2e1461006757806359825f9e146100835780636a34e3fb146100b3578063715018a6146100d15780638da5cb5b146100db578063f2fde38b146100f9575b600080fd5b610081600480360381019061007c91906106d4565b610115565b005b61009d60048036038101906100989190610730565b6102d4565b6040516100aa9190610776565b60405180910390f35b6100bb6102ec565b6040516100c891906107f0565b60405180910390f35b6100d9610312565b005b6100e3610326565b6040516100f0919061081a565b60405180910390f35b610113600480360381019061010e9190610730565b61034f565b005b6000600260008473ffffffffffffffffffffffffffffffffffffffff1673ffffffffffffffffffffffffffffffffffffffff1681526020019081526020016000205414610197576040517f08c379a000000000000000000000000000000000000000000000000000000000815260040161018e90610892565b60405180910390fd5b6000600160009054906101000a900473ffffffffffffffffffffffffffffffffffffffff1673ffffffffffffffffffffffffffffffffffffffff1663d0def52184846040518363ffffffff1660e01b81526004016101f6929190610920565b6020604051808303816000875af1158015610215573d6000803e3d6000fd5b505050506040513d601f19601f82011682018060405250810190610239919061097c565b905080600260008573ffffffffffffffffffffffffffffffffffffffff1673ffffffffffffffffffffffffffffffffffffffff168152602001908152602001600020819055508273ffffffffffffffffffffffffffffffffffffffff167f16770655f5e10e075410826e0cbd3067ba5e87639a49407124ec270af265766e82846040516102c79291906109a9565b60405180910390a2505050565b60026020528060005260406000206000915090505481565b600160009054906101000a900473ffffffffffffffffffffffffffffffffffffffff1681565b61031a6103d2565b6103246000610450565b565b60008060009054906101000a900473ffffffffffffffffffffffffffffffffffffffff16905090565b6103576103d2565b600073ffffffffffffffffffffffffffffffffffffffff168173ffffffffffffffffffffffffffffffffffffffff16036103c6576040517f08c379a00000000000000000000000000000000000000000000000000000000081526004016103bd90610a4b565b60405180910390fd5b6103cf81610450565b50565b6103da610514565b73ffffffffffffffffffffffffffffffffffffffff166103f8610326565b73ffffffffffffffffffffffffffffffffffffffff161461044e576040517f08c379a000000000000000000000000000000000000000000000000000000000815260040161044590610ab7565b60405180910390fd5b565b60008060009054906101000a900473ffffffffffffffffffffffffffffffffffffffff169050816000806101000a81548173ffffffffffffffffffffffffffffffffffffffff021916908373ffffffffffffffffffffffffffffffffffffffff1602179055508173ffffffffffffffffffffffffffffffffffffffff168173ffffffffffffffffffffffffffffffffffffffff167f8be0079c531659141344cd1fd0a4f28419497f9722a3daafe3b4186f6b6457e060405160405180910390a35050565b600033905090565b6000604051905090565b600080fd5b600080fd5b600073ffffffffffffffffffffffffffffffffffffffff82169050919050565b600061055b82610530565b9050919050565b61056b81610550565b811461057657600080fd5b50565b60008135905061058881610562565b92915050565b600080fd5b600080fd5b6000601f19601f8301169050919050565b7f4e487b7100000000000000000000000000000000000000000000000000000000600052604160045260246000fd5b6105e182610598565b810181811067ffffffffffffffff82111715610600576105ff6105a9565b5b80604052505050565b600061061361051c565b905061061f82826105d8565b919050565b600067ffffffffffffffff82111561063f5761063e6105a9565b5b61064882610598565b9050602081019050919050565b82818337600083830152505050565b600061067761067284610624565b610609565b90508281526020810184848401111561069357610692610593565b5b61069e848285610655565b509392505050565b600082601f8301126106bb576106ba61058e565b5b81356106cb848260208601610664565b91505092915050565b600080604083850312156106eb576106ea610526565b5b60006106f985828601610579565b925050602083013567ffffffffffffffff81111561071a5761071961052b565b5b610726858286016106a6565b9150509250929050565b60006020828403121561074657610745610526565b5b600061075484828501610579565b91505092915050565b6000819050919050565b6107708161075d565b82525050565b600060208201905061078b6000830184610767565b92915050565b6000819050919050565b60006107b66107b16107ac84610530565b610791565b610530565b9050919050565b60006107c88261079b565b9050919050565b60006107da826107bd565b9050919050565b6107ea816107cf565b82525050565b600060208201905061080560008301846107e1565b92915050565b61081481610550565b82525050565b600060208201905061082f600083018461080b565b92915050565b600082825260208201905092915050565b7f4d65726368616e7420616c726561647920726567697374657265640000000000600082015250565b600061087c601b83610835565b915061088782610846565b602082019050919050565b600060208201905081810360008301526108ab8161086f565b9050919050565b600081519050919050565b60005b838110156108db5780820151818401526020810190506108c0565b60008484015250505050565b60006108f2826108b2565b6108fc8185610835565b935061090c8185602086016108bd565b61091581610598565b840191505092915050565b6000604082019050610935600083018561080b565b818103602083015261094781846108e7565b90509392505050565b6109598161075d565b811461096457600080fd5b50565b60008151905061097681610950565b92915050565b60006020828403121561099257610991610526565b5b60006109a084828501610967565b91505092915050565b60006040820190506109be6000830185610767565b81810360208301526109d081846108e7565b90509392505050565b7f4f776e61626c653a206e6577206f776e657220697320746865207a65726f206160008201527f6464726573730000000000000000000000000000000000000000000000000000602082015250565b6000610a35602683610835565b9150610a40826109d9565b604082019050919050565b60006020820190508181036000830152610a6481610a28565b9050919050565b7f4f776e61626c653a2063616c6c6572206973206e6f7420746865206f776e6572600082015250565b6000610aa1602083610835565b9150610aac82610a6b565b602082019050919050565b60006020820190508181036000830152610ad081610a94565b905091905056fea2646970667358221220c62e7e8c0062e836a02127d0de708e617c43d0402ee91dca6491f38bddee29a364736f6c63430008130033",
  "linkReferences": {},
  "deployedLinkReferences": {}
}